{"abi":[{"type":"constructor","inputs":[{"name":"tokenImpl_","type":"address","internalType":"address"},{"name":"timelockImpl_","type":"address","internalType":"address"},{"name":"governorImpl_","type":"address","internalType":"address"}],"stateMutability":"nonpayable"},{"type":"function","name":"createDAO","inputs":[{"name":"params","type":"tuple","internalType":"struct IDAOFactory.DAOParams","components":[{"name":"name","type":"string","internalType":"string"},{"name":"tokenSymbol","type":"string","internalType":"string"},{"name":"tokenRecipients","type":"address[]","internalType":"address[]"},{"name":"tokenAmounts","type":"uint256[]","internalType":"uint256[]"},{"name":"votingDelay","type":"uint48","internalType":"uint48"},{"name":"votingPeriod","type":"uint32","internalType":"uint32"},{"name":"proposalThreshold","type":"uint256","internalType":"uint256"},{"name":"quorumNumerator","type":"uint256","internalType":"uint256"},{"name":"timelockDelay","type":"uint256","internalType":"uint256"}]}],"outputs":[{"name":"token","type":"address","internalType":"address"},{"name":"timelock","type":"address","internalType":"address"},{"name":"governor","type":"address","internalType":"address"}],"stateMutability":"nonpayable"},{"type":"function","name":"daoCount","inputs":[],"outputs":[{"name":"","type":"uint256","internalType":"uint256"}],"stateMutability":"view"},{"type":"function","name":"daos","inputs":[{"name":"daoId","type":"uint256","internalType":"uint256"}],"outputs":[{"name":"name","type":"string","internalType":"string"},{"name":"token","type":"address","internalType":"address"},{"name":"timelock","type":"address","internalType":"address"},{"name":"governor","type":"address","internalType":"address"},{"name":"creator","type":"address","internalType":"address"},{"name":"createdAt","type":"uint256","internalType":"uint256"}],"stateMutability":"view"},{"type":"function","name":"governorImplementation","inputs":[],"outputs":[{"name":"","type":"address","internalType":"address"}],"stateMutability":"view"},{"type":"function","name":"predictAddresses","inputs":[{"name":"deployer","type":"address","internalType":"address"},{"name":"daoId","type":"uint256","internalType":"uint256"}],"outputs":[{"name":"token","type":"address","internalType":"address"},{"name":"timelock","type":"address","internalType":"address"},{"name":"governor","type":"address","internalType":"address"}],"stateMutability":"view"},{"type":"function","name":"timelockImplementation","inputs":[],"outputs":[{"name":"","type":"address","internalType":"address"}],"stateMutability":"view"},{"type":"function","name":"tokenImplementation","inputs":[],"outputs":[{"name":"","type":"address","internalType":"address"}],"stateMutability":"view"},{"type":"event","name":"DAOCreated","inputs":[{"name":"daoId","type":"uint256","indexed":true,"internalType":"uint256"},{"name":"token","type":"address","indexed":true,"internalType":"address"},{"name":"governor","type":"address","indexed":true,"internalType":"address"},{"name":"timelock","type":"address","indexed":false,"internalType":"address"},{"name":"creator","type":"address","indexed":false,"internalType":"address"},{"name":"name","type":"string","indexed":false,"internalType":"string"}],"anonymous":false},{"type":"error","name":"FailedDeployment","inputs":[]},{"type":"error","name":"InsufficientBalance","inputs":[{"name":"balance","type":"uint256","internalType":"uint256"},{"name":"needed","type":"uint256","internalType":"uint256"}]}],"bytecode":{"object":"0x60e0346101b257601f6200146d38819003918201601f191683019291906001600160401b038411838510176101b65781606092849260409687528339810103126101b25761004c816101ca565b906100648361005d602084016101ca565b92016101ca565b916001600160a01b038082161561016e578083161561012a578316156100e65760805260a05260c0525161128e9081620001df823960805181818160ff01528181610599015281816105d10152611019015260a05181818161015a015281816103d9015261060f015260c0518181816101ac0152818161039401526106be0152f35b835162461bcd60e51b815260206004820152601e60248201527f44414f466163746f72793a207a65726f20676f7665726e6f7220696d706c00006044820152606490fd5b845162461bcd60e51b815260206004820152601e60248201527f44414f466163746f72793a207a65726f2074696d656c6f636b20696d706c00006044820152606490fd5b845162461bcd60e51b815260206004820152601b60248201527f44414f466163746f72793a207a65726f20746f6b656e20696d706c00000000006044820152606490fd5b5f80fd5b634e487b7160e01b5f52604160045260245ffd5b51906001600160a01b03821682036101b25756fe6080806040526004361015610012575f80fd5b5f905f3560e01c9081632f3a3d5d1461100757508063a1fe1a1e14610408578063c5e8f3e5146103c3578063c68106451461037e578063ccbbd26014610223578063d01cf419146102065763f8d6a7301461006b575f80fd5b34610203576040366003190112610203576004356001600160a01b03811681036101ff5760405160609190911b6bffffffffffffffffffffffff1916602082019081526024356034830152906100ce81605481015b03601f198101835282611121565b5190206101236040516020810190838252643a37b5b2b760d91b6040820152602581526100fa816110e9565b5190207f00000000000000000000000000000000000000000000000000000000000000006111f8565b6101fb6101d061017e60405160208101908682526774696d656c6f636b60c01b604082015260288152610155816110e9565b5190207f00000000000000000000000000000000000000000000000000000000000000006111f8565b93604051602081019182526733b7bb32b93737b960c11b6040820152602881526101a7816110e9565b5190207f00000000000000000000000000000000000000000000000000000000000000006111f8565b604080516001600160a01b039485168152948416602086015292169183019190915281906060820190565b0390f35b5f80fd5b80fd5b503461020357806003193601126102035760209054604051908152f35b50346102035760208060031936011261037a57600435825260019060018152604083209060018060a01b0380600184015416816002850154169082600386015416926004860154169360058601549560405180988a90835493610285856111c0565b94858552866001821691825f1461035857505060011461031b575b50506102b6925099969492979593990388611121565b60405197889660c088528851968760c08a0152805b888110610302575060e0809a50888a01015287015260408601526060850152608084015260a0830152601f80199101168101030190f35b808b0183015199810160e001999099528a9882016102cb565b8592508c52818c20908c915b85831061033f5750506102b693508201015f806102a0565b819484848396959654920101520191018a928592610327565b92509350506102b694915060ff191682840152151560051b8201015f806102a0565b5080fd5b50346102035780600319360112610203576040517f00000000000000000000000000000000000000000000000000000000000000006001600160a01b03168152602090f35b50346102035780600319360112610203576040517f00000000000000000000000000000000000000000000000000000000000000006001600160a01b03168152602090f35b50346101ff5760203660031901126101ff5767ffffffffffffffff600435116101ff57610120600435360360031901126101ff57610450604460043501600435600401611048565b9050610466606460043501600435600401611048565b91905003610fc257610482604460043501600435600401611048565b905015610f7d5760c861049f604460043501600435600401611048565b905011610f3857600160e46004350135101580610f27575b15610ee257600165ffffffffffff6104d360846004350161107e565b1610610e9257611c2063ffffffff6104ef60a460043501611091565b1610610e4157610e10610104600435013510610df0576105136004803501806110a2565b905015610db2575f546040513360601b6bffffffffffffffffffffffff191660208201908152603482018390529061054e81605481016100c0565b519020906040516020810190838252643a37b5b2b760d91b604082015260258152610578816110e9565b519020763d602d80600a3d3981f3363d3d373d3d3d363d7300000062ffffff7f000000000000000000000000000000000000000000000000000000000000000060881c16175f526e5af43d82803e903d91602b57fd5bf37f000000000000000000000000000000000000000000000000000000000000000060781b17602052603760095ff5906001600160a01b03821615610da0577f00000000000000000000000000000000000000000000000000000000000000006e5af43d82803e903d91602b57fd5bf360405160208101908682526774696d656c6f636b60c01b604082015260288152610667816110e9565b51902091763d602d80600a3d3981f3363d3d373d3d3d363d7300000062ffffff8260881c16175f5260781b17602052603760095ff5926001600160a01b03841615610da0576e5af43d82803e903d91602b57fd5bf37f000000000000000000000000000000000000000000000000000000000000000091604051602081019182526733b7bb32b93737b960c11b604082015260288152610706816110e9565b51902091763d602d80600a3d3981f3363d3d373d3d3d363d7300000062ffffff8260881c16175f5260781b17602052603760095ff5906001600160a01b03821615610da0576107596004803501806110a2565b9061076e6024600435016004356004016110a2565b610782604460043501600435600401611048565b9091610798606460043501600435600401611048565b9590946001600160a01b038b163b156101ff576020926107d46107e6936040519a63445d978760e01b8c52608060048d015260848c0191611143565b8981036003190160248b015291611143565b8681036003190160448801528281520191905f905b808210610d76575050508381036003190160648501528281526001600160fb1b0383116101ff578380926020925f9560051b80928583013701030181836001600160a01b0389165af18015610d6b57610d58575b508460405161085d81611105565b60018152602036818301376001600160a01b03841661087b82611163565b526040519061088982611105565b60018252602036818401378261089e83611163565b526001600160a01b0387163b15610cf5576108e783916108f9604051948593849363c4c4c7b360e01b855261010460043501356004860152608060248601526084850190611184565b83810360031901604485015290611184565b606482018490520381836001600160a01b038b165af18015610d3957610d44575b506109296004803501806110a2565b61093760846004350161107e565b9161094660a460043501611091565b916001600160a01b0387163b15610d355761098c9363ffffffff869465ffffffffffff6040519788968796630edb763b60e21b885260e0600489015260e4880191611143565b6001600160a01b038d811660248801528e811660448801529490911660648601529116608484015260c46004358181013560a486015260e401359084015291909103908290849089165af18015610d3957610d21575b506109f390506004803501806110a2565b604051918260c081011067ffffffffffffffff60c085011117610d0d5760c0830160405267ffffffffffffffff8211610cf957879060405192610a406020601f19601f8401160185611121565b8084523681830111610cf55780602092838601378301015281526001600160a01b0384811660208084019190915286821660408085019190915291851660608401523360808401524260a0840152838852600190528620815180519192919067ffffffffffffffff8211610ce157610ab884546111c0565b601f8111610ca0575b50602090601f8311600114610c355791806005949260a0948c92610c2a575b50508160011b915f199060031b1c19161784555b60018401600180841b03602083015116906bffffffffffffffffffffffff841b918282541617905560028501600180851b036040840151168282541617905560038501600180851b03606084015116828254161790556004850190600180851b0360808401511690825416179055015191015560018101808211610c16576101fb93949555610b8d6004356004016004356004016110a2565b604080516001600160a01b0389811682523360208301526060928201839052868116959089169490937f7bb50dab3ae7e6dd4cea8f7ddcba84643d464f1270f282f028e1126d0cd16892938392610be8929184019190611143565b0390a4604080516001600160a01b039485168152948416602086015292169183019190915281906060820190565b634e487b7160e01b86526011600452602486fd5b015190505f80610ae0565b90848a5260208a20918a5b601f1985168110610c885750926005949260019260a09583601f19811610610c70575b505050811b018455610af4565b01515f1960f88460031b161c191690555f8080610c63565b91926020600181928685015181550194019201610c40565b848a5260208a20601f840160051c810160208510610cda575b601f830160051c82018110610ccf575050610ac1565b8b8155600101610cb9565b5080610cb9565b634e487b7160e01b89526041600452602489fd5b8280fd5b634e487b7160e01b88526041600452602488fd5b634e487b7160e01b5f52604160045260245ffd5b610d2a906110d5565b610d3557845f6109e2565b8480fd5b6040513d84823e3d90fd5b610d4d906110d5565b610d3557845f61091a565b610d639195506110d5565b5f935f61084f565b6040513d5f823e3d90fd5b90919283359060018060a01b0382168092036101ff576020816001938293520194019201906107fb565b60405163b06ebf3d60e01b8152600490fd5b60405162461bcd60e51b815260206004820152601660248201527544414f466163746f72793a20656d707479206e616d6560501b6044820152606490fd5b60405162461bcd60e51b8152602060048201526024808201527f44414f466163746f72793a2074696d656c6f636b2064656c617920746f6f20736044820152631a1bdc9d60e21b6064820152608490fd5b60405162461bcd60e51b815260206004820152602360248201527f44414f466163746f72793a20766f74696e6720706572696f6420746f6f2073686044820152621bdc9d60ea1b6064820152608490fd5b60405162461bcd60e51b815260206004820152602260248201527f44414f466163746f72793a20766f74696e672064656c617920746f6f2073686f6044820152611c9d60f21b6064820152608490fd5b60405162461bcd60e51b815260206004820152601a60248201527f44414f466163746f72793a20696e76616c69642071756f72756d0000000000006044820152606490fd5b50606460e4600435013511156104b7565b60405162461bcd60e51b815260206004820152601f60248201527f44414f466163746f72793a20746f6f206d616e7920726563697069656e7473006044820152606490fd5b60405162461bcd60e51b815260206004820152601960248201527f44414f466163746f72793a206e6f20726563697069656e7473000000000000006044820152606490fd5b60405162461bcd60e51b815260206004820152601b60248201527f44414f466163746f72793a206c656e677468206d69736d6174636800000000006044820152606490fd5b346101ff575f3660031901126101ff577f00000000000000000000000000000000000000000000000000000000000000006001600160a01b03168152602090f35b903590601e19813603018212156101ff570180359067ffffffffffffffff82116101ff57602001918160051b360383136101ff57565b3565ffffffffffff811681036101ff5790565b3563ffffffff811681036101ff5790565b903590601e19813603018212156101ff570180359067ffffffffffffffff82116101ff576020019181360383136101ff57565b67ffffffffffffffff8111610d0d57604052565b6060810190811067ffffffffffffffff821117610d0d57604052565b6040810190811067ffffffffffffffff821117610d0d57604052565b90601f8019910116810190811067ffffffffffffffff821117610d0d57604052565b908060209392818452848401375f828201840152601f01601f1916010190565b8051156111705760200190565b634e487b7160e01b5f52603260045260245ffd5b9081518082526020808093019301915f5b8281106111a3575050505090565b83516001600160a01b031685529381019392810192600101611195565b90600182811c921680156111ee575b60208310146111da57565b634e487b7160e01b5f52602260045260245ffd5b91607f16916111cf565b90604051913060388401526f5af43d82803e903d91602b57fd5bf3ff60248401526014830152733d602d80600a3d3981f3363d3d373d3d3d363d73825260588201526037600c82012060788201526055604360018060a01b03920120169056fea26469706673582212207eaaac27012741e6460da305dd067ae458fdd57a670ff7d41b5e069e40c483e364736f6c63430008180033","linkReferences":{}},"methodIdentifiers":{"createDAO((string,string,address[],uint256[],uint48,uint32,uint256,uint256,uint256))":"a1fe1a1e","daoCount()":"d01cf419","daos(uint256)":"ccbbd260","governorImplementation()":"c6810645","predictAddresses(address,uint256)":"f8d6a730","timelockImplementation()":"c5e8f3e5","tokenImplementation()":"2f3a3d5d"},"id":73}