{"abi":[{"type":"constructor","inputs":[],"stateMutability":"nonpayable"},{"type":"function","name":"CLOCK_MODE","inputs":[],"outputs":[{"name":"","type":"string","internalType":"string"}],"stateMutability":"view"},{"type":"function","name":"DOMAIN_SEPARATOR","inputs":[],"outputs":[{"name":"","type":"bytes32","internalType":"bytes32"}],"stateMutability":"view"},{"type":"function","name":"allowance","inputs":[{"name":"owner","type":"address","internalType":"address"},{"name":"spender","type":"address","internalType":"address"}],"outputs":[{"name":"","type":"uint256","internalType":"uint256"}],"stateMutability":"view"},{"type":"function","name":"approve","inputs":[{"name":"spender","type":"address","internalType":"address"},{"name":"value","type":"uint256","internalType":"uint256"}],"outputs":[{"name":"","type":"bool","internalType":"bool"}],"stateMutability":"nonpayable"},{"type":"function","name":"balanceOf","inputs":[{"name":"account","type":"address","internalType":"address"}],"outputs":[{"name":"","type":"uint256","internalType":"uint256"}],"stateMutability":"view"},{"type":"function","name":"checkpoints","inputs":[{"name":"account","type":"address","internalType":"address"},{"name":"pos","type":"uint32","internalType":"uint32"}],"outputs":[{"name":"","type":"tuple","internalType":"struct Checkpoints.Checkpoint208","components":[{"name":"_key","type":"uint48","internalType":"uint48"},{"name":"_value","type":"uint208","internalType":"uint208"}]}],"stateMutability":"view"},{"type":"function","name":"clock","inputs":[],"outputs":[{"name":"","type":"uint48","internalType":"uint48"}],"stateMutability":"view"},{"type":"function","name":"decimals","inputs":[],"outputs":[{"name":"","type":"uint8","internalType":"uint8"}],"stateMutability":"view"},{"type":"function","name":"delegate","inputs":[{"name":"delegatee","type":"address","internalType":"address"}],"outputs":[],"stateMutability":"nonpayable"},{"type":"function","name":"delegateBySig","inputs":[{"name":"delegatee","type":"address","internalType":"address"},{"name":"nonce","type":"uint256","internalType":"uint256"},{"name":"expiry","type":"uint256","internalType":"uint256"},{"name":"v","type":"uint8","internalType":"uint8"},{"name":"r","type":"bytes32","internalType":"bytes32"},{"name":"s","type":"bytes32","internalType":"bytes32"}],"outputs":[],"stateMutability":"nonpayable"},{"type":"function","name":"delegates","inputs":[{"name":"account","type":"address","internalType":"address"}],"outputs":[{"name":"","type":"address","internalType":"address"}],"stateMutability":"view"},{"type":"function","name":"eip712Domain","inputs":[],"outputs":[{"name":"fields","type":"bytes1","internalType":"bytes1"},{"name":"name","type":"string","internalType":"string"},{"name":"version","type":"string","internalType":"string"},{"name":"chainId","type":"uint256","internalType":"uint256"},{"name":"verifyingContract","type":"address","internalType":"address"},{"name":"salt","type":"bytes32","internalType":"bytes32"},{"name":"extensions","type":"uint256[]","internalType":"uint256[]"}],"stateMutability":"view"},{"type":"function","name":"getPastTotalSupply","inputs":[{"name":"timepoint","type":"uint256","internalType":"uint256"}],"outputs":[{"name":"","type":"uint256","internalType":"uint256"}],"stateMutability":"view"},{"type":"function","name":"getPastVotes","inputs":[{"name":"account","type":"address","internalType":"address"},{"name":"timepoint","type":"uint256","internalType":"uint256"}],"outputs":[{"name":"","type":"uint256","internalType":"uint256"}],"stateMutability":"view"},{"type":"function","name":"getVotes","inputs":[{"name":"account","type":"address","internalType":"address"}],"outputs":[{"name":"","type":"uint256","internalType":"uint256"}],"stateMutability":"view"},{"type":"function","name":"initialize","inputs":[{"name":"name_","type":"string","internalType":"string"},{"name":"symbol_","type":"string","internalType":"string"},{"name":"recipients","type":"address[]","internalType":"address[]"},{"name":"amounts","type":"uint256[]","internalType":"uint256[]"}],"outputs":[],"stateMutability":"nonpayable"},{"type":"function","name":"name","inputs":[],"outputs":[{"name":"","type":"string","internalType":"string"}],"stateMutability":"view"},{"type":"function","name":"nonces","inputs":[{"name":"owner","type":"address","internalType":"address"}],"outputs":[{"name":"","type":"uint256","internalType":"uint256"}],"stateMutability":"view"},{"type":"function","name":"numCheckpoints","inputs":[{"name":"account","type":"address","internalType":"address"}],"outputs":[{"name":"","type":"uint32","internalType":"uint32"}],"stateMutability":"view"},{"type":"function","name":"permit","inputs":[{"name":"owner","type":"address","internalType":"address"},{"name":"spender","type":"address","internalType":"address"},{"name":"value","type":"uint256","internalType":"uint256"},{"name":"deadline","type":"uint256","internalType":"uint256"},{"name":"v","type":"uint8","internalType":"uint8"},{"name":"r","type":"bytes32","internalType":"bytes32"},{"name":"s","type":"bytes32","internalType":"bytes32"}],"outputs":[],"stateMutability":"nonpayable"},{"type":"function","name":"symbol","inputs":[],"outputs":[{"name":"","type":"string","internalType":"string"}],"stateMutability":"view"},{"type":"function","name":"totalSupply","inputs":[],"outputs":[{"name":"","type":"uint256","internalType":"uint256"}],"stateMutability":"view"},{"type":"function","name":"transfer","inputs":[{"name":"to","type":"address","internalType":"address"},{"name":"value","type":"uint256","internalType":"uint256"}],"outputs":[{"name":"","type":"bool","internalType":"bool"}],"stateMutability":"nonpayable"},{"type":"function","name":"transferFrom","inputs":[{"name":"from","type":"address","internalType":"address"},{"name":"to","type":"address","internalType":"address"},{"name":"value","type":"uint256","internalType":"uint256"}],"outputs":[{"name":"","type":"bool","internalType":"bool"}],"stateMutability":"nonpayable"},{"type":"event","name":"Approval","inputs":[{"name":"owner","type":"address","indexed":true,"internalType":"address"},{"name":"spender","type":"address","indexed":true,"internalType":"address"},{"name":"value","type":"uint256","indexed":false,"internalType":"uint256"}],"anonymous":false},{"type":"event","name":"DelegateChanged","inputs":[{"name":"delegator","type":"address","indexed":true,"internalType":"address"},{"name":"fromDelegate","type":"address","indexed":true,"internalType":"address"},{"name":"toDelegate","type":"address","indexed":true,"internalType":"address"}],"anonymous":false},{"type":"event","name":"DelegateVotesChanged","inputs":[{"name":"delegate","type":"address","indexed":true,"internalType":"address"},{"name":"previousVotes","type":"uint256","indexed":false,"internalType":"uint256"},{"name":"newVotes","type":"uint256","indexed":false,"internalType":"uint256"}],"anonymous":false},{"type":"event","name":"EIP712DomainChanged","inputs":[],"anonymous":false},{"type":"event","name":"Initialized","inputs":[{"name":"version","type":"uint64","indexed":false,"internalType":"uint64"}],"anonymous":false},{"type":"event","name":"Transfer","inputs":[{"name":"from","type":"address","indexed":true,"internalType":"address"},{"name":"to","type":"address","indexed":true,"internalType":"address"},{"name":"value","type":"uint256","indexed":false,"internalType":"uint256"}],"anonymous":false},{"type":"error","name":"CheckpointUnorderedInsertion","inputs":[]},{"type":"error","name":"ECDSAInvalidSignature","inputs":[]},{"type":"error","name":"ECDSAInvalidSignatureLength","inputs":[{"name":"length","type":"uint256","internalType":"uint256"}]},{"type":"error","name":"ECDSAInvalidSignatureS","inputs":[{"name":"s","type":"bytes32","internalType":"bytes32"}]},{"type":"error","name":"ERC20ExceededSafeSupply","inputs":[{"name":"increasedSupply","type":"uint256","internalType":"uint256"},{"name":"cap","type":"uint256","internalType":"uint256"}]},{"type":"error","name":"ERC20InsufficientAllowance","inputs":[{"name":"spender","type":"address","internalType":"address"},{"name":"allowance","type":"uint256","internalType":"uint256"},{"name":"needed","type":"uint256","internalType":"uint256"}]},{"type":"error","name":"ERC20InsufficientBalance","inputs":[{"name":"sender","type":"address","internalType":"address"},{"name":"balance","type":"uint256","internalType":"uint256"},{"name":"needed","type":"uint256","internalType":"uint256"}]},{"type":"error","name":"ERC20InvalidApprover","inputs":[{"name":"approver","type":"address","internalType":"address"}]},{"type":"error","name":"ERC20InvalidReceiver","inputs":[{"name":"receiver","type":"address","internalType":"address"}]},{"type":"error","name":"ERC20InvalidSender","inputs":[{"name":"sender","type":"address","internalType":"address"}]},{"type":"error","name":"ERC20InvalidSpender","inputs":[{"name":"spender","type":"address","internalType":"address"}]},{"type":"error","name":"ERC2612ExpiredSignature","inputs":[{"name":"deadline","type":"uint256","internalType":"uint256"}]},{"type":"error","name":"ERC2612InvalidSigner","inputs":[{"name":"signer","type":"address","internalType":"address"},{"name":"owner","type":"address","internalType":"address"}]},{"type":"error","name":"ERC5805FutureLookup","inputs":[{"name":"timepoint","type":"uint256","internalType":"uint256"},{"name":"clock","type":"uint48","internalType":"uint48"}]},{"type":"error","name":"ERC6372InconsistentClock","inputs":[]},{"type":"error","name":"InvalidAccountNonce","inputs":[{"name":"account","type":"address","internalType":"address"},{"name":"currentNonce","type":"uint256","internalType":"uint256"}]},{"type":"error","name":"InvalidInitialization","inputs":[]},{"type":"error","name":"NotInitializing","inputs":[]},{"type":"error","name":"SafeCastOverflowedUintDowncast","inputs":[{"name":"bits","type":"uint8","internalType":"uint8"},{"name":"value","type":"uint256","internalType":"uint256"}]},{"type":"error","name":"VotesExpiredSignature","inputs":[{"name":"expiry","type":"uint256","internalType":"uint256"}]}],"bytecode":{"object":"0x608080604052346100b8577ff0c57e16840df040f15088dc2f81fe391c3923bec73e23a9662efc9c229c6a009081549060ff8260401c166100a957506001600160401b036002600160401b031982821601610064575b604051612a8490816100bd8239f35b6001600160401b031990911681179091556040519081527fc7f505b2f371ae2175ee4913f4499e1f2633a7b5936321eed1cdaeb6115181d290602090a15f8080610055565b63f92ee8a960e01b8152600490fd5b5f80fdfe60806040526004361015610011575f80fd5b5f3560e01c806306fdde0314610194578063095ea7b31461018f57806318160ddd1461018a57806323b872dd14610185578063313ce567146101805780633644e5151461017b5780633a46b1a814610176578063445d9787146101715780634bf5d7e91461016c578063587cde1e146101675780635c19a95c146101625780636fcfff451461015d57806370a08231146101585780637ecebe001461015357806384b0196e1461014e5780638e539e8c1461014957806391ddadf41461014457806395d89b411461013f5780639ab24eb01461013a578063a9059cbb14610135578063c3cda52014610130578063d505accf1461012b578063dd62ed3e146101265763f1127ed814610121575f80fd5b610f05565b610ecd565b610d7b565b610cb2565b610c6c565b610c35565b610b83565b610b58565b610a83565b6109cf565b610978565b610921565b6108cc565b6108aa565b610865565b6107d4565b6106f4565b6104bc565b61049a565b61047f565b61038c565b610350565b61031f565b6101eb565b91908251928382525f5b8481106101c3575050825f602080949584010152601f8019910116010190565b6020818301810151848301820152016101a3565b9060206101e8928181520190610199565b90565b346102db575f3660031901126102db576040515f5f8051602061296f83398151915280549061021982610f98565b808552916020916001918281169081156102ae5750600114610256575b61025286610246818803826105f8565b604051918291826101d7565b0390f35b5f90815293507f2ae08a8e29253f69ac5d979a101956ab8f8d9d7ded63fa7a83b16fc47648eab05b83851061029b57505050508101602001610246826102525f610236565b805486860184015293820193810161027e565b90508695506102529693506020925061024694915060ff191682840152151560051b82010192935f610236565b5f80fd5b600435906001600160a01b03821682036102db57565b602435906001600160a01b03821682036102db57565b35906001600160a01b03821682036102db57565b346102db5760403660031901126102db5761034561033b6102df565b6024359033611b96565b602060405160018152f35b346102db575f3660031901126102db5760207f52c63247e1f47db19d5ce0460030c497f067ca4cebf71ba98eeadabe20bace0254604051908152f35b346102db5760603660031901126102db576103a56102df565b6103ad6102f5565b604435906103d3336103be8561114f565b9060018060a01b03165f5260205260405f2090565b54925f1984106103f4575b6103e89350611535565b60405160018152602090f35b828410610459576001600160a01b0381161561044157331561042957826103e89403610423336103be8461114f565b556103de565b604051634a1406b160e11b81525f6004820152602490fd5b60405163e602df0560e01b81525f6004820152602490fd5b604051637dc7a0d960e11b81523360048201526024810185905260448101849052606490fd5b346102db575f3660031901126102db57602060405160128152f35b346102db575f3660031901126102db5760206104b4611bee565b604051908152f35b346102db5760403660031901126102db576104dd6104d86102df565b611187565b6104e8602435611615565b8154905f82916005841161053b575b610502935084611e52565b908161052057505060205f5b6040516001600160d01b039091168152f35b61052b60209261166a565b905f52815f20015460301c61050e565b919261054681611cc1565b81039081116105895761050293855f5265ffffffffffff808360205f20015416908516105f146105775750916104f7565b92915061058390611678565b906104f7565b611656565b634e487b7160e01b5f52604160045260245ffd5b604081019081106001600160401b038211176105bd57604052565b61058e565b602081019081106001600160401b038211176105bd57604052565b60a081019081106001600160401b038211176105bd57604052565b90601f801991011681019081106001600160401b038211176105bd57604052565b60405190610626826105a2565b565b81601f820112156102db578035906001600160401b0382116105bd576040519261065c601f8401601f1916602001856105f8565b828452602083830101116102db57815f926020809301838601378301015290565b6001600160401b0381116105bd5760051b60200190565b9080601f830112156102db5760209082356106ae8161067d565b936106bc60405195866105f8565b81855260208086019260051b8201019283116102db57602001905b8282106106e5575050505090565b813581529083019083016106d7565b346102db5760803660031901126102db576001600160401b036004358181116102db57610725903690600401610628565b6024358281116102db5761073d903690600401610628565b604435908382116102db57366023830112156102db5781600401356107618161067d565b9261076f60405194856105f8565b8184526020916024602086019160051b830101913683116102db57602401905b8282106107bd57505050506064359384116102db576107b56107bb943690600401610694565b926111f7565b005b8380916107c98461030b565b81520191019061078f565b346102db575f3660031901126102db576107ed43611c71565b65ffffffffffff806107fe43611c71565b1691160361085357610252604051610815816105a2565b601d81527f6d6f64653d626c6f636b6e756d6265722666726f6d3d64656661756c740000006020820152604051918291602083526020830190610199565b6040516301bfc1c560e61b8152600490fd5b346102db5760203660031901126102db5760206001600160a01b03806108896102df565b165f525f8051602061294f833981519152825260405f205416604051908152f35b346102db5760203660031901126102db576107bb6108c66102df565b336119bf565b346102db5760203660031901126102db576108e86104d86102df565b5463ffffffff908181116109025760209160405191168152f35b604490604051906306dfcc6560e41b8252602060048301526024820152fd5b346102db5760203660031901126102db5760206104b461093f6102df565b6001600160a01b03165f9081527f52c63247e1f47db19d5ce0460030c497f067ca4cebf71ba98eeadabe20bace00602052604090205490565b346102db5760203660031901126102db576001600160a01b036109996102df565b165f527f5ab42ced628888259c08ac98db1eb0cf702fc1501344311d8b100cd1bfe4bb00602052602060405f2054604051908152f35b346102db575f3660031901126102db57610a266109ea610fd0565b6109f26110a3565b604051906109ff826105c2565b5f8252610a34602091604051958695600f60f81b875260e0602088015260e0870190610199565b908582036040870152610199565b4660608501523060808501525f60a085015283810360c0850152602080845192838152019301915f5b828110610a6c57505050500390f35b835185528695509381019392810192600101610a5d565b346102db5760203660031901126102db57610a9f600435611615565b5f805160206129ef833981519152908154905f829160058411610b00575b610ac79350611dec565b9081610ada5750506040515f8152602090f35b610ae560209261166a565b905f525f80516020612a2f833981519152015460301c61050e565b9192610b0b81611cc1565b810390811161058957610ac793855f5265ffffffffffff80835f80516020612a2f833981519152015416908516105f14610b46575091610abd565b929150610b5290611678565b90610abd565b346102db575f3660031901126102db576020610b7343611c71565b65ffffffffffff60405191168152f35b346102db575f3660031901126102db576040515f5f805160206129af833981519152805490610bb182610f98565b808552916020916001918281169081156102ae5750600114610bdd5761025286610246818803826105f8565b5f90815293507f46a2803e59a4de4e7a4c574b1243f25977ac4c77d5a1a4a609b5394cebb4a2aa5b838510610c2257505050508101602001610246826102525f610236565b8054868601840152938201938101610c05565b346102db5760203660031901126102db5760206001600160d01b03610c63610c5e6104d86102df565b611abc565b16604051908152f35b346102db5760403660031901126102db57610345610c886102df565b6024359033611535565b6064359060ff821682036102db57565b6084359060ff821682036102db57565b346102db5760c03660031901126102db57610ccb6102df565b60443590602435610cda610c92565b834211610d6257610d566107bb94610d5d926040519060208201927fe48329057bfd03d55e49b547132e39cffd9c1820ad7b9d4c5307691425d15adf845260018060a01b0388166040840152866060840152608083015260808252610d3e826105dd565b610d5160a4359360843593519020611ae4565b611b0a565b9182611b22565b6119bf565b604051632341d78760e11b815260048101859052602490fd5b346102db5760e03660031901126102db57610d946102df565b610d9c6102f5565b60443590606435610dab610ca2565b814211610eb4576001600160a01b038581165f8181527f5ab42ced628888259c08ac98db1eb0cf702fc1501344311d8b100cd1bfe4bb00602090815260409182902080546001810190915582517f6e71edae12b1b97f4d1f60370fef10105fa2faae0126114a169c64845d6126c99281019283529283019390935292861660608201526080810187905260a081019190915260c080820194909452928352610e6d929091610e5a60e0836105f8565b610d5160c4359360a43593519020611ae4565b6001600160a01b0384811690821603610e8a57506107bb92611b96565b6040516325c0072360e11b81526001600160a01b0391821660048201529084166024820152604490fd5b60405163313c898160e11b815260048101839052602490fd5b346102db5760403660031901126102db576020610efc610eeb6102df565b6103be610ef66102f5565b9161114f565b54604051908152f35b346102db5760403660031901126102db57610f1e6102df565b6024359063ffffffff821682036102db57604091610f50610f5e92610f4161151d565b50610f4a61151d565b50611187565b610f5861151d565b506124f9565b50815190610f6b826105a2565b54602065ffffffffffff821692838152019060301c8152825191825260018060d01b039051166020820152f35b90600182811c92168015610fc6575b6020831014610fb257565b634e487b7160e01b5f52602260045260245ffd5b91607f1691610fa7565b604051905f825f8051602061298f83398151915291825492610ff184610f98565b8084529360209160019182811690811561107d575060011461101d575b505050610626925003836105f8565b5f9081527f42ad5d3e1f2e6e70edcf6d991b8a3023d3fca8047a131592f9edb9fd9b89d57d9590935091905b82841061106557506106269450505081016020015f808061100e565b85548885018301529485019487945092810192611049565b925050506020925061062694915060ff191682840152151560051b8201015f808061100e565b604051905f825f805160206129cf833981519152918254926110c484610f98565b8084529360209160019182811690811561107d57506001146110ef57505050610626925003836105f8565b5f9081527f5f9ce34815f8e11431c7bb75a8e6886a91478f7ffc1dbb0a98dc240fddd76b759590935091905b82841061113757506106269450505081016020015f808061100e565b8554888501830152948501948794509281019261111b565b6001600160a01b03165f9081527f52c63247e1f47db19d5ce0460030c497f067ca4cebf71ba98eeadabe20bace016020526040902090565b6001600160a01b03165f9081527fe8b26c30fad74198956032a3533d903385d56dd795af560196f9c78d4af40d016020526040902090565b6001600160a01b03165f9081527f52c63247e1f47db19d5ce0460030c497f067ca4cebf71ba98eeadabe20bace006020526040902090565b9290915f80516020612a0f8339815191529283549460ff8660401c1615956001600160401b038116801590816112f5575b60011490816112eb575b1590816112e2575b506112d05767ffffffffffffffff191660011790945561125e93856112ac576113ff565b61126457565b5f80516020612a0f833981519152805460ff60401b19169055604051600181527fc7f505b2f371ae2175ee4913f4499e1f2633a7b5936321eed1cdaeb6115181d290602090a1565b5f80516020612a0f833981519152805460ff60401b1916600160401b1790556113ff565b60405163f92ee8a960e01b8152600490fd5b9050155f61123a565b303b159150611232565b889150611228565b1561130457565b60405162461bcd60e51b815260206004820152601760248201527f44414f546f6b656e3a206e6f20726563697069656e74730000000000000000006044820152606490fd5b634e487b7160e01b5f52603260045260245ffd5b80518210156113715760209160051b010190565b611349565b1561137d57565b60405162461bcd60e51b815260206004820152601660248201527544414f546f6b656e3a207a65726f206164647265737360501b6044820152606490fd5b156113c257565b60405162461bcd60e51b8152602060048201526015602482015274111053d51bdad95b8e881e995c9bc8185b5bdd5b9d605a1b6044820152606490fd5b9392919384518351036114d85761142561142a9261141f875115156112fd565b82611686565b6117ab565b611432611ea6565b5f5b83518110156114d2578061147361146c6114606114536001958961135d565b516001600160a01b031690565b6001600160a01b031690565b1515611376565b611488611480828561135d565b5115156113bb565b6114a9611498611453838861135d565b6114a2838661135d565b51906118df565b6114cc6114b9611453838861135d565b6114c6611453848961135d565b906119bf565b01611434565b50509050565b60405162461bcd60e51b815260206004820152601960248201527f44414f546f6b656e3a206c656e677468206d69736d61746368000000000000006044820152606490fd5b6040519061152a826105a2565b5f6020838281520152565b6001600160a01b03808216949392919085156115fd57821680156115e55761155c826111bf565b54958487106115b65784610626969703611575846111bf565b5561157f846111bf565b8054860190556040518581527fddf252ad1be2c89b69c2b068fc378daa952ba7f163c4a11628f55a4df523b3ef90602090a3612663565b60405163391434e360e21b81526001600160a01b03841660048201526024810188905260448101869052606490fd5b60405163ec442f0560e01b81525f6004820152602490fd5b604051634b637e8f60e11b81525f6004820152602490fd5b65ffffffffffff61162543611c71565b168082101561163857506101e890611c71565b6044925060405191637669fc0f60e11b835260048301526024820152fd5b634e487b7160e01b5f52601160045260245ffd5b5f1981019190821161058957565b906001820180921161058957565b9190611690611ea6565b611698611ea6565b82516001600160401b0381116105bd575f8051602061296f833981519152906116ca816116c58454610f98565b611ed4565b602080601f8311600114611711575090806116ff9261062696975f92611706575b50508160011b915f199060031b1c19161790565b90556120b8565b015190505f806116eb565b90601f1983169661174f5f8051602061296f8339815191525f527f2ae08a8e29253f69ac5d979a101956ab8f8d9d7ded63fa7a83b16fc47648eab090565b925f905b8982106117935750509083929160019461062698991061177b575b505050811b0190556120b8565b01515f1960f88460031b161c191690555f808061176e565b80600185968294968601518155019501930190611753565b906117b4611ea6565b6040516117c0816105a2565b6001808252602090603160f81b60208401526117da611ea6565b8451906001600160401b0382116105bd575f8051602061298f8339815191529261180d836118088654610f98565b611f4d565b602091601f841160011461184957505090806118429261062696975f926117065750508160011b915f199060031b1c19161790565b90556121b1565b5f8051602061298f8339815191525f908152601f198516987f42ad5d3e1f2e6e70edcf6d991b8a3023d3fca8047a131592f9edb9fd9b89d57d949390925b8a83106118c857505050908392916001946106269899106118b0575b505050811b0190556121b1565b01515f1960f88460031b161c191690555f80806118a3565b838501518655948501949381019391810191611887565b91906001600160a01b03831680156115e5577f52c63247e1f47db19d5ce0460030c497f067ca4cebf71ba98eeadabe20bace02908154838101809111610589577f52c63247e1f47db19d5ce0460030c497f067ca4cebf71ba98eeadabe20bace025561194a856111bf565b8054840190556040518381525f907fddf252ad1be2c89b69c2b068fc378daa952ba7f163c4a11628f55a4df523b3ef90602090a354926001600160d01b038411611999576106269293506125da565b604051630e58ae9360e11b8152600481018590526001600160d01b036024820152604490fd5b6001600160a01b038181165f8181525f8051602061294f8339815191526020526040812080548685166001600160a01b03198216811790925561062696941694611a659390928691907f3134e8a2e6d97e929a7e54011ea5485d7d196dd5f0ba4d4ef95803e8e3fc257f9080a46001600160a01b03165f9081527f52c63247e1f47db19d5ce0460030c497f067ca4cebf71ba98eeadabe20bace00602052604090205490565b9161228d565b5f805160206129ef833981519152805480611a865750505f90565b805f19810111610589577f88c46c62109817164d0ae1873830d4299a82e5daf552a3d8e989b27638fcf747915f52015460301c90565b805480611ac95750505f90565b5f19918183810111610589575f5260205f2001015460301c90565b604290611aef611bee565b906040519161190160f01b8352600283015260228201522090565b916101e89391611b19936123c1565b9092919261246c565b6001600160a01b0381165f9081527f5ab42ced628888259c08ac98db1eb0cf702fc1501344311d8b100cd1bfe4bb00602052604090208054600181019091559091819003611b6e575050565b6040516301d4b62360e61b81526001600160a01b039092166004830152602482015260449150fd5b6001600160a01b0380821692919083156104415782169384156104295780611be47f8c5be1e5ebec7d5bd14f71427d1e84f3dd0314c0f7b2291e5b200ac8c7c3b925946103be60209561114f565b55604051908152a3565b611bf6610fd0565b60208151910120611c056110a3565b602081519101206040519060208201927f8b73c3c69bb8fe3d512ecc4cf759cc79239f7b179b0ffacaa9a75d522b39400f8452604083015260608201524660808201523060a082015260a0815260c081018181106001600160401b038211176105bd5760405251902090565b65ffffffffffff90818111611c84571690565b604490604051906306dfcc6560e41b8252603060048301526024820152fd5b8115611cad570490565b634e487b7160e01b5f52601260045260245ffd5b60018111156101e857600181600160801b811015611dda575b611d82611d78611d6e611d64611d5a611d50611d8e97600488600160401b611d899a1015611dcd575b640100000000811015611dc0575b62010000811015611db3575b610100811015611da7575b6010811015611d9b575b1015611d93575b60030260011c611d49818b611ca3565b0160011c90565b611d49818a611ca3565b611d498189611ca3565b611d498188611ca3565b611d498187611ca3565b611d498186611ca3565b8093611ca3565b821190565b900390565b60011b611d39565b811c9160021b91611d32565b60081c91811b91611d28565b60101c9160081b91611d1d565b60201c9160101b91611d11565b60401c9160201b91611d03565b50600160401b9050608082901c611cda565b828210611df857505090565b909180831860011c81841601905f805160206129ef8339815191525f5265ffffffffffff80835f80516020612a2f833981519152015416908416105f14611e425750915b90611dec565b9250611e4d90611678565b611e3c565b905b838310611e615750505090565b90919280841860011c8185160190835f5265ffffffffffff808360205f20015416908416105f14611e965750925b9190611e54565b9350611ea190611678565b611e8f565b60ff5f80516020612a0f8339815191525460401c1615611ec257565b604051631afcd79f60e31b8152600490fd5b601f8111611ee0575050565b5f8051602061296f8339815191525f527f2ae08a8e29253f69ac5d979a101956ab8f8d9d7ded63fa7a83b16fc47648eab0906020601f840160051c83019310611f43575b601f0160051c01905b818110611f38575050565b5f8155600101611f2d565b9091508190611f24565b601f8111611f59575050565b5f8051602061298f8339815191525f527f42ad5d3e1f2e6e70edcf6d991b8a3023d3fca8047a131592f9edb9fd9b89d57d906020601f840160051c83019310611fbc575b601f0160051c01905b818110611fb1575050565b5f8155600101611fa6565b9091508190611f9d565b601f8111611fd2575050565b5f805160206129af8339815191525f527f46a2803e59a4de4e7a4c574b1243f25977ac4c77d5a1a4a609b5394cebb4a2aa906020601f840160051c83019310612035575b601f0160051c01905b81811061202a575050565b5f815560010161201f565b9091508190612016565b601f811161204b575050565b5f805160206129cf8339815191525f527f5f9ce34815f8e11431c7bb75a8e6886a91478f7ffc1dbb0a98dc240fddd76b75906020601f840160051c830193106120ae575b601f0160051c01905b8181106120a3575050565b5f8155600101612098565b909150819061208f565b9081516001600160401b0381116105bd575f805160206129af833981519152906120eb816120e68454610f98565b611fc6565b602080601f83116001146121205750819061211c9394955f926117065750508160011b915f199060031b1c19161790565b9055565b90601f1983169561215e5f805160206129af8339815191525f527f46a2803e59a4de4e7a4c574b1243f25977ac4c77d5a1a4a609b5394cebb4a2aa90565b925f905b88821061219957505083600195969710612181575b505050811b019055565b01515f1960f88460031b161c191690555f8080612177565b80600185968294968601518155019501930190612162565b9081516001600160401b0381116105bd575f805160206129cf833981519152906121e4816121df8454610f98565b61203f565b602080601f83116001146122155750819061211c9394955f926117065750508160011b915f199060031b1c19161790565b90601f198316956122535f805160206129cf8339815191525f527f5f9ce34815f8e11431c7bb75a8e6886a91478f7ffc1dbb0a98dc240fddd76b7590565b925f905b8882106122755750508360019596971061218157505050811b019055565b80600185968294968601518155019501930190612257565b6001600160a01b038083169392919081169081851415806123b8575b6122b5575b5050505050565b8161232a575b5050826122ca575b80806122ae565b7fdec2bacdd2f05b59de34da9b523dff8be42e5e38e818c82fdb0bae774387a724916123016122fb61230793611187565b9161250e565b90612541565b604080516001600160d01b039384168152919092166020820152a25f80806122c3565b61233390611187565b61233c8461250e565b61234543611c71565b6001600160d01b0391828061235986611abc565b169116900392828411610589577fdec2bacdd2f05b59de34da9b523dff8be42e5e38e818c82fdb0bae774387a724936123ae9261239592612894565b6040805192851683529316602082015291829190820190565b0390a25f806122bb565b508315156122a9565b91907f7fffffffffffffffffffffffffffffff5d576e7357a4501ddfe92f46681b20a08411612443579160209360809260ff5f9560405194855216868401526040830152606082015282805260015afa15612438575f516001600160a01b0381161561242e57905f905f90565b505f906001905f90565b6040513d5f823e3d90fd5b5050505f9160039190565b6004111561245857565b634e487b7160e01b5f52602160045260245ffd5b6124758161244e565b8061247e575050565b6124878161244e565b600181036124a15760405163f645eedf60e01b8152600490fd5b6124aa8161244e565b600281036124cb5760405163fce698f760e01b815260048101839052602490fd5b806124d760039261244e565b146124df5750565b6040516335e2f38360e21b81526004810191909152602490fd5b8054821015611371575f5260205f2001905f90565b6001600160d01b0390818111612522571690565b604490604051906306dfcc6560e41b825260d060048301526024820152fd5b9061254b43611c71565b6001600160d01b0391828061255f86611abc565b169116019182116105895761257392612894565b9091565b61258043611c71565b906001600160d01b03908180612594611a6b565b169116019081116105895761257391612796565b6125b143611c71565b906001600160d01b039081806125c5611a6b565b16911690039081116105895761257391612796565b90610626916125f06125eb8361250e565b612577565b50506001600160a01b0390811690811561264b575b5f8051602061294f8339815191526020527fd4fb29e10204005f1a39963c6862b79a755e22f0177c53f05cdc3786c702f974545f9283526040909220548116911661228d565b61265c6126578461250e565b6125a8565b5050612605565b61062692916001600160a01b039182169190819083156126c3575b169182156126b0575b5f525f8051602061294f8339815191526020528060405f205416915f5260405f2054169061228d565b6126bc6126578561250e565b5050612687565b6126cf6125eb8661250e565b505061267e565b5f805160206129ef833981519152908154600160401b8110156105bd5760018101808455811015611371575f92909252805160209091015160301b65ffffffffffff191665ffffffffffff91909116175f80516020612a2f8339815191529190910155565b8054600160401b8110156105bd57612758916001820181556124f9565b61278357815160209092015160301b65ffffffffffff191665ffffffffffff92909216919091179055565b634e487b7160e01b5f525f60045260245ffd5b5f805160206129ef83398151915254919291801561286b576127ba6127dc9161166a565b5f805160206129ef8339815191525f525f80516020612a2f8339815191520190565b9081549165ffffffffffff90818416918316808311612859578692036128215761281a92509065ffffffffffff82549181199060301b169116179055565b60301c9190565b505061285490612840612832610619565b65ffffffffffff9092168252565b6001600160d01b03851660208201526126d6565b61281a565b604051632520601d60e01b8152600490fd5b5061288f9061287b612832610619565b6001600160d01b03841660208201526126d6565b5f9190565b80549293928015612929576128ab6128b69161166a565b825f5260205f200190565b9182549265ffffffffffff91828516928116808411612859578793036128f5575061281a92509065ffffffffffff82549181199060301b169116179055565b91505061285491612915612907610619565b65ffffffffffff9093168352565b6001600160d01b038616602083015261273b565b509061288f9161293a612907610619565b6001600160d01b038516602083015261273b56fee8b26c30fad74198956032a3533d903385d56dd795af560196f9c78d4af40d0052c63247e1f47db19d5ce0460030c497f067ca4cebf71ba98eeadabe20bace03a16a46d94261c7517cc8ff89f61c0ce93598e3c849801011dee649a6a557d10252c63247e1f47db19d5ce0460030c497f067ca4cebf71ba98eeadabe20bace04a16a46d94261c7517cc8ff89f61c0ce93598e3c849801011dee649a6a557d103e8b26c30fad74198956032a3533d903385d56dd795af560196f9c78d4af40d02f0c57e16840df040f15088dc2f81fe391c3923bec73e23a9662efc9c229c6a0088c46c62109817164d0ae1873830d4299a82e5daf552a3d8e989b27638fcf748a2646970667358221220a0db56031bdef2838dad8f140e165942607db15bc48ffa51f6f39872bed2ae8a64736f6c63430008180033","linkReferences":{}},"methodIdentifiers":{"CLOCK_MODE()":"4bf5d7e9","DOMAIN_SEPARATOR()":"3644e515","allowance(address,address)":"dd62ed3e","approve(address,uint256)":"095ea7b3","balanceOf(address)":"70a08231","checkpoints(address,uint32)":"f1127ed8","clock()":"91ddadf4","decimals()":"313ce567","delegate(address)":"5c19a95c","delegateBySig(address,uint256,uint256,uint8,bytes32,bytes32)":"c3cda520","delegates(address)":"587cde1e","eip712Domain()":"84b0196e","getPastTotalSupply(uint256)":"8e539e8c","getPastVotes(address,uint256)":"3a46b1a8","getVotes(address)":"9ab24eb0","initialize(string,string,address[],uint256[])":"445d9787","name()":"06fdde03","nonces(address)":"7ecebe00","numCheckpoints(address)":"6fcfff45","permit(address,address,uint256,uint256,uint8,bytes32,bytes32)":"d505accf","symbol()":"95d89b41","totalSupply()":"18160ddd","transfer(address,uint256)":"a9059cbb","transferFrom(address,address,uint256)":"23b872dd"},"id":57}