{"abi":[{"type":"constructor","inputs":[],"stateMutability":"nonpayable"},{"type":"receive","stateMutability":"payable"},{"type":"function","name":"BALLOT_TYPEHASH","inputs":[],"outputs":[{"name":"","type":"bytes32","internalType":"bytes32"}],"stateMutability":"view"},{"type":"function","name":"CLOCK_MODE","inputs":[],"outputs":[{"name":"","type":"string","internalType":"string"}],"stateMutability":"view"},{"type":"function","name":"COUNTING_MODE","inputs":[],"outputs":[{"name":"","type":"string","internalType":"string"}],"stateMutability":"pure"},{"type":"function","name":"EXTENDED_BALLOT_TYPEHASH","inputs":[],"outputs":[{"name":"","type":"bytes32","internalType":"bytes32"}],"stateMutability":"view"},{"type":"function","name":"cancel","inputs":[{"name":"targets","type":"address[]","internalType":"address[]"},{"name":"values","type":"uint256[]","internalType":"uint256[]"},{"name":"calldatas","type":"bytes[]","internalType":"bytes[]"},{"name":"descriptionHash","type":"bytes32","internalType":"bytes32"}],"outputs":[{"name":"","type":"uint256","internalType":"uint256"}],"stateMutability":"nonpayable"},{"type":"function","name":"castVote","inputs":[{"name":"proposalId","type":"uint256","internalType":"uint256"},{"name":"support","type":"uint8","internalType":"uint8"}],"outputs":[{"name":"","type":"uint256","internalType":"uint256"}],"stateMutability":"nonpayable"},{"type":"function","name":"castVoteBySig","inputs":[{"name":"proposalId","type":"uint256","internalType":"uint256"},{"name":"support","type":"uint8","internalType":"uint8"},{"name":"voter","type":"address","internalType":"address"},{"name":"signature","type":"bytes","internalType":"bytes"}],"outputs":[{"name":"","type":"uint256","internalType":"uint256"}],"stateMutability":"nonpayable"},{"type":"function","name":"castVoteWithReason","inputs":[{"name":"proposalId","type":"uint256","internalType":"uint256"},{"name":"support","type":"uint8","internalType":"uint8"},{"name":"reason","type":"string","internalType":"string"}],"outputs":[{"name":"","type":"uint256","internalType":"uint256"}],"stateMutability":"nonpayable"},{"type":"function","name":"castVoteWithReasonAndParams","inputs":[{"name":"proposalId","type":"uint256","internalType":"uint256"},{"name":"support","type":"uint8","internalType":"uint8"},{"name":"reason","type":"string","internalType":"string"},{"name":"params","type":"bytes","internalType":"bytes"}],"outputs":[{"name":"","type":"uint256","internalType":"uint256"}],"stateMutability":"nonpayable"},{"type":"function","name":"castVoteWithReasonAndParamsBySig","inputs":[{"name":"proposalId","type":"uint256","internalType":"uint256"},{"name":"support","type":"uint8","internalType":"uint8"},{"name":"voter","type":"address","internalType":"address"},{"name":"reason","type":"string","internalType":"string"},{"name":"params","type":"bytes","internalType":"bytes"},{"name":"signature","type":"bytes","internalType":"bytes"}],"outputs":[{"name":"","type":"uint256","internalType":"uint256"}],"stateMutability":"nonpayable"},{"type":"function","name":"clock","inputs":[],"outputs":[{"name":"","type":"uint48","internalType":"uint48"}],"stateMutability":"view"},{"type":"function","name":"eip712Domain","inputs":[],"outputs":[{"name":"fields","type":"bytes1","internalType":"bytes1"},{"name":"name","type":"string","internalType":"string"},{"name":"version","type":"string","internalType":"string"},{"name":"chainId","type":"uint256","internalType":"uint256"},{"name":"verifyingContract","type":"address","internalType":"address"},{"name":"salt","type":"bytes32","internalType":"bytes32"},{"name":"extensions","type":"uint256[]","internalType":"uint256[]"}],"stateMutability":"view"},{"type":"function","name":"execute","inputs":[{"name":"targets","type":"address[]","internalType":"address[]"},{"name":"values","type":"uint256[]","internalType":"uint256[]"},{"name":"calldatas","type":"bytes[]","internalType":"bytes[]"},{"name":"descriptionHash","type":"bytes32","internalType":"bytes32"}],"outputs":[{"name":"","type":"uint256","internalType":"uint256"}],"stateMutability":"payable"},{"type":"function","name":"getProposalId","inputs":[{"name":"targets","type":"address[]","internalType":"address[]"},{"name":"values","type":"uint256[]","internalType":"uint256[]"},{"name":"calldatas","type":"bytes[]","internalType":"bytes[]"},{"name":"descriptionHash","type":"bytes32","internalType":"bytes32"}],"outputs":[{"name":"","type":"uint256","internalType":"uint256"}],"stateMutability":"view"},{"type":"function","name":"getVotes","inputs":[{"name":"account","type":"address","internalType":"address"},{"name":"timepoint","type":"uint256","internalType":"uint256"}],"outputs":[{"name":"","type":"uint256","internalType":"uint256"}],"stateMutability":"view"},{"type":"function","name":"getVotesWithParams","inputs":[{"name":"account","type":"address","internalType":"address"},{"name":"timepoint","type":"uint256","internalType":"uint256"},{"name":"params","type":"bytes","internalType":"bytes"}],"outputs":[{"name":"","type":"uint256","internalType":"uint256"}],"stateMutability":"view"},{"type":"function","name":"hasVoted","inputs":[{"name":"proposalId","type":"uint256","internalType":"uint256"},{"name":"account","type":"address","internalType":"address"}],"outputs":[{"name":"","type":"bool","internalType":"bool"}],"stateMutability":"view"},{"type":"function","name":"hashProposal","inputs":[{"name":"targets","type":"address[]","internalType":"address[]"},{"name":"values","type":"uint256[]","internalType":"uint256[]"},{"name":"calldatas","type":"bytes[]","internalType":"bytes[]"},{"name":"descriptionHash","type":"bytes32","internalType":"bytes32"}],"outputs":[{"name":"","type":"uint256","internalType":"uint256"}],"stateMutability":"pure"},{"type":"function","name":"initialize","inputs":[{"name":"name_","type":"string","internalType":"string"},{"name":"token_","type":"address","internalType":"contract IVotes"},{"name":"timelock_","type":"address","internalType":"contract TimelockControllerUpgradeable"},{"name":"votingDelay_","type":"uint48","internalType":"uint48"},{"name":"votingPeriod_","type":"uint32","internalType":"uint32"},{"name":"proposalThreshold_","type":"uint256","internalType":"uint256"},{"name":"quorumNumerator_","type":"uint256","internalType":"uint256"}],"outputs":[],"stateMutability":"nonpayable"},{"type":"function","name":"name","inputs":[],"outputs":[{"name":"","type":"string","internalType":"string"}],"stateMutability":"view"},{"type":"function","name":"nonces","inputs":[{"name":"owner","type":"address","internalType":"address"}],"outputs":[{"name":"","type":"uint256","internalType":"uint256"}],"stateMutability":"view"},{"type":"function","name":"onERC1155BatchReceived","inputs":[{"name":"","type":"address","internalType":"address"},{"name":"","type":"address","internalType":"address"},{"name":"","type":"uint256[]","internalType":"uint256[]"},{"name":"","type":"uint256[]","internalType":"uint256[]"},{"name":"","type":"bytes","internalType":"bytes"}],"outputs":[{"name":"","type":"bytes4","internalType":"bytes4"}],"stateMutability":"nonpayable"},{"type":"function","name":"onERC1155Received","inputs":[{"name":"","type":"address","internalType":"address"},{"name":"","type":"address","internalType":"address"},{"name":"","type":"uint256","internalType":"uint256"},{"name":"","type":"uint256","internalType":"uint256"},{"name":"","type":"bytes","internalType":"bytes"}],"outputs":[{"name":"","type":"bytes4","internalType":"bytes4"}],"stateMutability":"nonpayable"},{"type":"function","name":"onERC721Received","inputs":[{"name":"","type":"address","internalType":"address"},{"name":"","type":"address","internalType":"address"},{"name":"","type":"uint256","internalType":"uint256"},{"name":"","type":"bytes","internalType":"bytes"}],"outputs":[{"name":"","type":"bytes4","internalType":"bytes4"}],"stateMutability":"nonpayable"},{"type":"function","name":"proposalDeadline","inputs":[{"name":"proposalId","type":"uint256","internalType":"uint256"}],"outputs":[{"name":"","type":"uint256","internalType":"uint256"}],"stateMutability":"view"},{"type":"function","name":"proposalEta","inputs":[{"name":"proposalId","type":"uint256","internalType":"uint256"}],"outputs":[{"name":"","type":"uint256","internalType":"uint256"}],"stateMutability":"view"},{"type":"function","name":"proposalNeedsQueuing","inputs":[{"name":"proposalId","type":"uint256","internalType":"uint256"}],"outputs":[{"name":"","type":"bool","internalType":"bool"}],"stateMutability":"view"},{"type":"function","name":"proposalProposer","inputs":[{"name":"proposalId","type":"uint256","internalType":"uint256"}],"outputs":[{"name":"","type":"address","internalType":"address"}],"stateMutability":"view"},{"type":"function","name":"proposalSnapshot","inputs":[{"name":"proposalId","type":"uint256","internalType":"uint256"}],"outputs":[{"name":"","type":"uint256","internalType":"uint256"}],"stateMutability":"view"},{"type":"function","name":"proposalThreshold","inputs":[],"outputs":[{"name":"","type":"uint256","internalType":"uint256"}],"stateMutability":"view"},{"type":"function","name":"proposalVotes","inputs":[{"name":"proposalId","type":"uint256","internalType":"uint256"}],"outputs":[{"name":"againstVotes","type":"uint256","internalType":"uint256"},{"name":"forVotes","type":"uint256","internalType":"uint256"},{"name":"abstainVotes","type":"uint256","internalType":"uint256"}],"stateMutability":"view"},{"type":"function","name":"propose","inputs":[{"name":"targets","type":"address[]","internalType":"address[]"},{"name":"values","type":"uint256[]","internalType":"uint256[]"},{"name":"calldatas","type":"bytes[]","internalType":"bytes[]"},{"name":"description","type":"string","internalType":"string"}],"outputs":[{"name":"","type":"uint256","internalType":"uint256"}],"stateMutability":"nonpayable"},{"type":"function","name":"queue","inputs":[{"name":"targets","type":"address[]","internalType":"address[]"},{"name":"values","type":"uint256[]","internalType":"uint256[]"},{"name":"calldatas","type":"bytes[]","internalType":"bytes[]"},{"name":"descriptionHash","type":"bytes32","internalType":"bytes32"}],"outputs":[{"name":"","type":"uint256","internalType":"uint256"}],"stateMutability":"nonpayable"},{"type":"function","name":"quorum","inputs":[{"name":"timepoint","type":"uint256","internalType":"uint256"}],"outputs":[{"name":"","type":"uint256","internalType":"uint256"}],"stateMutability":"view"},{"type":"function","name":"quorumDenominator","inputs":[],"outputs":[{"name":"","type":"uint256","internalType":"uint256"}],"stateMutability":"view"},{"type":"function","name":"quorumNumerator","inputs":[{"name":"timepoint","type":"uint256","internalType":"uint256"}],"outputs":[{"name":"","type":"uint256","internalType":"uint256"}],"stateMutability":"view"},{"type":"function","name":"quorumNumerator","inputs":[],"outputs":[{"name":"","type":"uint256","internalType":"uint256"}],"stateMutability":"view"},{"type":"function","name":"relay","inputs":[{"name":"target","type":"address","internalType":"address"},{"name":"value","type":"uint256","internalType":"uint256"},{"name":"data","type":"bytes","internalType":"bytes"}],"outputs":[],"stateMutability":"payable"},{"type":"function","name":"setProposalThreshold","inputs":[{"name":"newProposalThreshold","type":"uint256","internalType":"uint256"}],"outputs":[],"stateMutability":"nonpayable"},{"type":"function","name":"setVotingDelay","inputs":[{"name":"newVotingDelay","type":"uint48","internalType":"uint48"}],"outputs":[],"stateMutability":"nonpayable"},{"type":"function","name":"setVotingPeriod","inputs":[{"name":"newVotingPeriod","type":"uint32","internalType":"uint32"}],"outputs":[],"stateMutability":"nonpayable"},{"type":"function","name":"state","inputs":[{"name":"proposalId","type":"uint256","internalType":"uint256"}],"outputs":[{"name":"","type":"uint8","internalType":"enum IGovernor.ProposalState"}],"stateMutability":"view"},{"type":"function","name":"supportsInterface","inputs":[{"name":"interfaceId","type":"bytes4","internalType":"bytes4"}],"outputs":[{"name":"","type":"bool","internalType":"bool"}],"stateMutability":"view"},{"type":"function","name":"timelock","inputs":[],"outputs":[{"name":"","type":"address","internalType":"address"}],"stateMutability":"view"},{"type":"function","name":"token","inputs":[],"outputs":[{"name":"","type":"address","internalType":"contract IERC5805"}],"stateMutability":"view"},{"type":"function","name":"updateQuorumNumerator","inputs":[{"name":"newQuorumNumerator","type":"uint256","internalType":"uint256"}],"outputs":[],"stateMutability":"nonpayable"},{"type":"function","name":"updateTimelock","inputs":[{"name":"newTimelock","type":"address","internalType":"contract TimelockControllerUpgradeable"}],"outputs":[],"stateMutability":"nonpayable"},{"type":"function","name":"version","inputs":[],"outputs":[{"name":"","type":"string","internalType":"string"}],"stateMutability":"view"},{"type":"function","name":"votingDelay","inputs":[],"outputs":[{"name":"","type":"uint256","internalType":"uint256"}],"stateMutability":"view"},{"type":"function","name":"votingPeriod","inputs":[],"outputs":[{"name":"","type":"uint256","internalType":"uint256"}],"stateMutability":"view"},{"type":"event","name":"EIP712DomainChanged","inputs":[],"anonymous":false},{"type":"event","name":"Initialized","inputs":[{"name":"version","type":"uint64","indexed":false,"internalType":"uint64"}],"anonymous":false},{"type":"event","name":"ProposalCanceled","inputs":[{"name":"proposalId","type":"uint256","indexed":false,"internalType":"uint256"}],"anonymous":false},{"type":"event","name":"ProposalCreated","inputs":[{"name":"proposalId","type":"uint256","indexed":false,"internalType":"uint256"},{"name":"proposer","type":"address","indexed":false,"internalType":"address"},{"name":"targets","type":"address[]","indexed":false,"internalType":"address[]"},{"name":"values","type":"uint256[]","indexed":false,"internalType":"uint256[]"},{"name":"signatures","type":"string[]","indexed":false,"internalType":"string[]"},{"name":"calldatas","type":"bytes[]","indexed":false,"internalType":"bytes[]"},{"name":"voteStart","type":"uint256","indexed":false,"internalType":"uint256"},{"name":"voteEnd","type":"uint256","indexed":false,"internalType":"uint256"},{"name":"description","type":"string","indexed":false,"internalType":"string"}],"anonymous":false},{"type":"event","name":"ProposalExecuted","inputs":[{"name":"proposalId","type":"uint256","indexed":false,"internalType":"uint256"}],"anonymous":false},{"type":"event","name":"ProposalQueued","inputs":[{"name":"proposalId","type":"uint256","indexed":false,"internalType":"uint256"},{"name":"etaSeconds","type":"uint256","indexed":false,"internalType":"uint256"}],"anonymous":false},{"type":"event","name":"ProposalThresholdSet","inputs":[{"name":"oldProposalThreshold","type":"uint256","indexed":false,"internalType":"uint256"},{"name":"newProposalThreshold","type":"uint256","indexed":false,"internalType":"uint256"}],"anonymous":false},{"type":"event","name":"QuorumNumeratorUpdated","inputs":[{"name":"oldQuorumNumerator","type":"uint256","indexed":false,"internalType":"uint256"},{"name":"newQuorumNumerator","type":"uint256","indexed":false,"internalType":"uint256"}],"anonymous":false},{"type":"event","name":"TimelockChange","inputs":[{"name":"oldTimelock","type":"address","indexed":false,"internalType":"address"},{"name":"newTimelock","type":"address","indexed":false,"internalType":"address"}],"anonymous":false},{"type":"event","name":"VoteCast","inputs":[{"name":"voter","type":"address","indexed":true,"internalType":"address"},{"name":"proposalId","type":"uint256","indexed":false,"internalType":"uint256"},{"name":"support","type":"uint8","indexed":false,"internalType":"uint8"},{"name":"weight","type":"uint256","indexed":false,"internalType":"uint256"},{"name":"reason","type":"string","indexed":false,"internalType":"string"}],"anonymous":false},{"type":"event","name":"VoteCastWithParams","inputs":[{"name":"voter","type":"address","indexed":true,"internalType":"address"},{"name":"proposalId","type":"uint256","indexed":false,"internalType":"uint256"},{"name":"support","type":"uint8","indexed":false,"internalType":"uint8"},{"name":"weight","type":"uint256","indexed":false,"internalType":"uint256"},{"name":"reason","type":"string","indexed":false,"internalType":"string"},{"name":"params","type":"bytes","indexed":false,"internalType":"bytes"}],"anonymous":false},{"type":"event","name":"VotingDelaySet","inputs":[{"name":"oldVotingDelay","type":"uint256","indexed":false,"internalType":"uint256"},{"name":"newVotingDelay","type":"uint256","indexed":false,"internalType":"uint256"}],"anonymous":false},{"type":"event","name":"VotingPeriodSet","inputs":[{"name":"oldVotingPeriod","type":"uint256","indexed":false,"internalType":"uint256"},{"name":"newVotingPeriod","type":"uint256","indexed":false,"internalType":"uint256"}],"anonymous":false},{"type":"error","name":"CheckpointUnorderedInsertion","inputs":[]},{"type":"error","name":"FailedCall","inputs":[]},{"type":"error","name":"GovernorAlreadyCastVote","inputs":[{"name":"voter","type":"address","internalType":"address"}]},{"type":"error","name":"GovernorAlreadyQueuedProposal","inputs":[{"name":"proposalId","type":"uint256","internalType":"uint256"}]},{"type":"error","name":"GovernorDisabledDeposit","inputs":[]},{"type":"error","name":"GovernorInsufficientProposerVotes","inputs":[{"name":"proposer","type":"address","internalType":"address"},{"name":"votes","type":"uint256","internalType":"uint256"},{"name":"threshold","type":"uint256","internalType":"uint256"}]},{"type":"error","name":"GovernorInvalidProposalLength","inputs":[{"name":"targets","type":"uint256","internalType":"uint256"},{"name":"calldatas","type":"uint256","internalType":"uint256"},{"name":"values","type":"uint256","internalType":"uint256"}]},{"type":"error","name":"GovernorInvalidQuorumFraction","inputs":[{"name":"quorumNumerator","type":"uint256","internalType":"uint256"},{"name":"quorumDenominator","type":"uint256","internalType":"uint256"}]},{"type":"error","name":"GovernorInvalidSignature","inputs":[{"name":"voter","type":"address","internalType":"address"}]},{"type":"error","name":"GovernorInvalidVoteParams","inputs":[]},{"type":"error","name":"GovernorInvalidVoteType","inputs":[]},{"type":"error","name":"GovernorInvalidVotingPeriod","inputs":[{"name":"votingPeriod","type":"uint256","internalType":"uint256"}]},{"type":"error","name":"GovernorNonexistentProposal","inputs":[{"name":"proposalId","type":"uint256","internalType":"uint256"}]},{"type":"error","name":"GovernorOnlyExecutor","inputs":[{"name":"account","type":"address","internalType":"address"}]},{"type":"error","name":"GovernorQueueNotImplemented","inputs":[]},{"type":"error","name":"GovernorRestrictedProposer","inputs":[{"name":"proposer","type":"address","internalType":"address"}]},{"type":"error","name":"GovernorUnableToCancel","inputs":[{"name":"proposalId","type":"uint256","internalType":"uint256"},{"name":"account","type":"address","internalType":"address"}]},{"type":"error","name":"GovernorUnexpectedProposalState","inputs":[{"name":"proposalId","type":"uint256","internalType":"uint256"},{"name":"current","type":"uint8","internalType":"enum IGovernor.ProposalState"},{"name":"expectedStates","type":"bytes32","internalType":"bytes32"}]},{"type":"error","name":"InvalidAccountNonce","inputs":[{"name":"account","type":"address","internalType":"address"},{"name":"currentNonce","type":"uint256","internalType":"uint256"}]},{"type":"error","name":"InvalidInitialization","inputs":[]},{"type":"error","name":"NotInitializing","inputs":[]},{"type":"error","name":"SafeCastOverflowedUintDowncast","inputs":[{"name":"bits","type":"uint8","internalType":"uint8"},{"name":"value","type":"uint256","internalType":"uint256"}]}],"bytecode":{"object":"0x60808060405234620000bd577ff0c57e16840df040f15088dc2f81fe391c3923bec73e23a9662efc9c229c6a009081549060ff8260401c16620000ae57506001600160401b036002600160401b03198282160162000068575b6040516145ab9081620000c28239f35b6001600160401b031990911681179091556040519081527fc7f505b2f371ae2175ee4913f4499e1f2633a7b5936321eed1cdaeb6115181d290602090a15f808062000058565b63f92ee8a960e01b8152600490fd5b5f80fdfe60806040526004361015610022575b3615610018575f80fd5b6100206126bb565b005b5f3560e01c806301ffc9a71461033c57806302a251a31461033757806306f3f9e61461033257806306fdde031461032d578063143489d014610328578063150b7a0214610323578063160cbed71461031e5780632656227d146103195780632d63f693146103145780632fe3e2611461030f5780633932abb11461030a5780633b6dd8ec146103055780633e4f49e61461030057806343859632146102fb578063452115d6146102f65780634bf5d7e9146102f1578063544ffc9c146102ec57806354fd4d50146102e757806356781388146102e25780635b8d0e0d146102dd5780635f398a14146102d857806360c4247f146102d357806379051887146102ce5780637b3c71d3146102c95780637d5e81e2146102c45780637ecebe00146102bf57806384b0196e146102ba5780638ff262e3146102b557806391ddadf4146102b057806397c3d334146102ab5780639a802a6d146102a6578063a7713a70146102a1578063a890c9101461029c578063a8f8a66814610279578063a9a9529414610297578063ab58fb8e14610292578063b58131b01461028d578063bc197c8114610288578063c01f9e3714610283578063c28bc2fa1461027e578063c59057e414610279578063d33219b414610274578063dd4e2ba51461026f578063deaaa7cc1461026a578063e540d01d14610265578063eb9019d414610260578063ece40cc11461025b578063f23a6e6114610256578063f8ce560a146102515763fc0c546a0361000e57611ceb565b611ccd565b611c56565b611c32565b611ba4565b611b72565b611b38565b611adb565b611aa7565b6118a3565b611a15565b6119f7565b611957565b61191c565b6118db565b6118bf565b61181e565b6117f3565b611733565b611718565b6116ee565b6115b8565b611533565b6114a6565b61141e565b6113c9565b61139c565b61137e565b61130f565b611287565b61120c565b6111e1565b61118a565b61115b565b6110b3565b611052565b611025565b610e87565b610e46565b610e0c565b610dcb565b610c3e565b6109eb565b6107a0565b61061c565b61052c565b610402565b6103d0565b346103c25760203660031901126103c25760043563ffffffff60e01b81168091036103c2576020906366defe7760e11b81149081156103b1575b81156103a0575b811561038f575b506040519015158152f35b6301ffc9a760e01b1490505f610384565b630271189760e51b8114915061037d565b6332a2ad4360e11b81149150610376565b5f80fd5b5f9103126103c257565b346103c2575f3660031901126103c257602063ffffffff5f805160206144168339815191525460301c16604051908152f35b346103c25760203660031901126103c25760043561041e6126db565b606481116104b3576001600160d01b039081610438613182565b16610441612444565b92808311610493577f0553476bf02ef2726e8ce5ced78d63e26e602e4a2257b1f559418e24b46339979361047791841690613f58565b505060408051918252602082019290925290819081015b0390a1005b6040516306dfcc6560e41b815260d0600482015260248101849052604490fd5b6044906040519063243e544560e01b8252600482015260646024820152fd5b5f5b8381106104e35750505f910152565b81810151838201526020016104d4565b9060209161050c815180928185528580860191016104d2565b601f01601f1916010190565b9060206105299281815201906104f3565b90565b346103c2575f3660031901126103c2576040515f5f8051602061453683398151915280549061055a82611d1f565b808552916020916001918281169081156105ef5750600114610597575b6105938661058781880382610704565b60405191829182610518565b0390f35b5f90815293507fda13dda7583a39a3cd73e8830529c760837228fa4683752c823b17e10548aad55b8385106105dc57505050508101602001610587826105935f610577565b80548686018401529382019381016105bf565b90508695506105939693506020925061058794915060ff191682840152151560051b82010192935f610577565b346103c25760203660031901126103c2576004355f525f805160206143f6833981519152602052602060018060a01b0360405f205416604051908152f35b6001600160a01b038116036103c257565b634e487b7160e01b5f52604160045260245ffd5b6001600160401b03811161069257604052565b61066b565b604081019081106001600160401b0382111761069257604052565b602081019081106001600160401b0382111761069257604052565b60c081019081106001600160401b0382111761069257604052565b61010081019081106001600160401b0382111761069257604052565b90601f801991011681019081106001600160401b0382111761069257604052565b6040519061073282610697565b565b6001600160401b03811161069257601f01601f191660200190565b92919261075b82610734565b916107696040519384610704565b8294818452818301116103c2578281602093845f960137010152565b9080601f830112156103c2578160206105299335910161074f565b346103c25760803660031901126103c2576107bc60043561065a565b6107c760243561065a565b6064356001600160401b0381116103c2576107e6903690600401610785565b505f80516020614516833981519152546001600160a01b0316300361081757604051630a85bd0160e11b8152602090f35b604051637485328f60e11b8152600490fd5b6001600160401b0381116106925760051b60200190565b9080601f830112156103c257602090823561085a81610829565b936108686040519586610704565b81855260208086019260051b8201019283116103c257602001905b828210610891575050505090565b838091833561089f8161065a565b815201910190610883565b9080601f830112156103c25760209082356108c481610829565b936108d26040519586610704565b81855260208086019260051b8201019283116103c257602001905b8282106108fb575050505090565b813581529083019083016108ed565b81601f820112156103c25780359160209161092484610829565b936109326040519586610704565b808552838086019160051b830101928084116103c257848301915b84831061095d5750505050505090565b82356001600160401b0381116103c257869161097e84848094890101610785565b81520192019161094d565b60806003198201126103c2576001600160401b03916004358381116103c257826109b591600401610840565b926024358181116103c257836109cd916004016108aa565b926044359182116103c2576109e49160040161090a565b9060643590565b346103c2576109f936610989565b909291610a08828583866125c7565b92610a1284612778565b505f805160206145168339815191528054909590610a40906001600160a01b03165b6001600160a01b031690565b9260409687519063793d064960e11b825260209081836004818a5afa968715610be357610aa9988b945f99610c15575b50935163b1c5f42760e01b81523060601b6bffffffffffffffffffffffff19169094189883918591829081908d8b8b8e6004860161339a565b03915afa8015610be357610adb93610a34935f92610be8575b5050610acd8a611ed6565b55546001600160a01b031690565b90813b156103c2575f8094610b06878b51998a97889687956308f2a0bb60e41b8752600487016133df565b03925af1908115610be357610b2a92610b2592610bca575b5042612e3d565b613d36565b65ffffffffffff811615610bb957917f9a2e42fd6722813d69113e7d0079d3d940171428df7373df9c7f7617cfda2892610ba884610b8a610593966001610b7088611f03565b019065ffffffffffff1665ffffffffffff19825416179055565b835185815265ffffffffffff90911660208201529081906040820190565b0390a1519081529081906020820190565b8251634844252360e11b8152600490fd5b80610bd7610bdd9261067f565b806103c6565b5f610b1e565b6120b9565b610c079250803d10610c0e575b610bff8183610704565b81019061262b565b5f80610ac2565b503d610bf5565b87919950918689610c338795863d8811610c0e57610bff8183610704565b9b9350505091610a70565b610c4736610989565b610c56818385879596976125c7565b92610c60846127ca565b50610c80610c6d85611f03565b805460ff60f01b1916600160f01b179055565b5f8051602061451683398151915280546001600160a01b039691949087163003610d5e575b926105939692610cb992610cca95886134a9565b91543092166001600160a01b031690565b141580610d2d575b610d13575b6040518181527f712ae1383f79ac853f8d882153778e0260ef8f03b504e2866e0593e04d2b291f90602090a16040519081529081906020820190565b610d285f5f805160206144f683398151915255565b610cd7565b50610d59610d555f805160206144f6833981519152546001600160801b0381169060801c1490565b1590565b610cd2565b9391959094925f5b8551811015610dbb5760019030610d90610a34610d83848b611f31565b516001600160a01b031690565b14610d9c575b01610d66565b610db6610da9828b611f31565b516020815191012061281c565b610d96565b5090959294919390929190610ca5565b346103c25760203660031901126103c2576004355f525f805160206143f6833981519152602052602065ffffffffffff60405f205460a01c16604051908152f35b346103c2575f3660031901126103c25760206040517f3e83946653575f9a39005e1545185629e92736b7528ab20ca3816f315424a8118152f35b346103c2575f3660031901126103c257602065ffffffffffff5f805160206144168339815191525416604051908152f35b65ffffffffffff8116036103c257565b346103c25760e03660031901126103c2576001600160401b036004358181116103c257610eb8903690600401610785565b602435610ec48161065a565b60443591610ed18361065a565b606435610edd81610e77565b6084359063ffffffff821682036103c2575f8051602061455683398151915294855460ff8160401c161597811680159081610fed575b6001149081610fe3575b159081610fda575b50610fc85767ffffffffffffffff1916600117909555610f529486610fa4575b60c4359460a43594611f4a565b610f5857005b5f80516020614556833981519152805460ff60401b19169055604051600181527fc7f505b2f371ae2175ee4913f4499e1f2633a7b5936321eed1cdaeb6115181d290806020810161048e565b5f80516020614556833981519152805460ff60401b1916600160401b179055610f45565b60405163f92ee8a960e01b8152600490fd5b9050155f610f25565b303b159150610f1d565b899150610f13565b634e487b7160e01b5f52602160045260245ffd5b6008111561101357565b610ff5565b9060088210156110135752565b346103c25760203660031901126103c25760206110436004356129cb565b6110506040518092611018565bf35b346103c25760403660031901126103c257602060ff6110a76024356110768161065a565b6004355f525f805160206144d68339815191528452600360405f20019060018060a01b03165f5260205260405f2090565b54166040519015158152f35b346103c2576110c136610989565b926110d1848385849695966125c7565b6110da816129cb565b6008811015611013571580611132575b1561110e576105936110fe868686866139b2565b6040519081529081906020820190565b604051638fe5d8a960e01b81526004810191909152336024820152604490fd5b0390fd5b50805f525f805160206143f683398151915260205260018060a01b0360405f20541633146110ea565b346103c2575f3660031901126103c25761059361117661210f565b6040519182916020835260208301906104f3565b346103c25760203660031901126103c2576004355f525f805160206144d683398151915260205260405f20805461059360026001840154930154604051938493846040919493926060820195825260208201520152565b346103c2575f3660031901126103c2576105936111766121d0565b6024359060ff821682036103c257565b346103c25760403660031901126103c257602061125261122a6111fc565b604051611236816106b2565b5f815260405191611246836106b2565b5f835233600435612b57565b604051908152f35b9181601f840112156103c2578235916001600160401b0383116103c257602083818601950101116103c257565b346103c25760c03660031901126103c2576112a06111fc565b604435906112ad8261065a565b6001600160401b03906064358281116103c2576112ce90369060040161125a565b6084358481116103c2576112e6903690600401610785565b9160a4359485116103c257610593956113066110fe963690600401610785565b946004356121ed565b346103c25760803660031901126103c2576113286111fc565b6001600160401b03906044358281116103c25761134990369060040161125a565b90916064359384116103c2576113746112529361136c6020963690600401610785565b93369161074f565b9033600435612b57565b346103c25760203660031901126103c2576020611252600435612c6f565b346103c25760203660031901126103c2576100206004356113bc81610e77565b6113c46126db565b612d6d565b346103c25760603660031901126103c2576113e26111fc565b6044356001600160401b0381116103c25760209161141161140a61125293369060040161125a565b369161074f565b60405191611246836106b2565b346103c25760803660031901126103c2576001600160401b036004358181116103c25761144f903690600401610840565b906024358181116103c2576114689036906004016108aa565b916044358281116103c25761148190369060040161090a565b6064359283116103c257610593936114a06110fe943690600401610785565b92612312565b346103c25760203660031901126103c2576004356114c38161065a565b60018060a01b03165f527f5ab42ced628888259c08ac98db1eb0cf702fc1501344311d8b100cd1bfe4bb00602052602060405f2054604051908152f35b9081518082526020808093019301915f5b82811061151f575050505090565b835185529381019392810192600101611511565b346103c2575f3660031901126103c25761158a61154e611d57565b610593611559611e2a565b61159860405191611569836106b2565b5f8352604051958695600f60f81b875260e0602088015260e08701906104f3565b9085820360408701526104f3565b904660608501523060808501525f60a085015283820360c0850152611500565b346103c25760803660031901126103c2576004356115d46111fc565b90604435916115e28361065a565b6064356001600160401b0381116103c257610d556116076116b2923690600401610785565b6001600160a01b0386165f9081527f5ab42ced628888259c08ac98db1eb0cf702fc1501344311d8b100cd1bfe4bb00602052604090208054600181019091556116ac9060405160208101917ff2aad550cf55f045cb27e9c559f9889fdfb6e6cdaa032301d6ea397784ae51d7835288604083015260ff8816606083015260018060a01b038a16608083015260a082015260a081526116a4816106cd565b519020613ae4565b86613b7c565b6116cd57906110fe91610593936116c76120c4565b92612adc565b6040516394ab6c0760e01b81526001600160a01b0384166004820152602490fd5b346103c2575f3660031901126103c2576020611708612444565b65ffffffffffff60405191168152f35b346103c2575f3660031901126103c257602060405160648152f35b346103c25760603660031901126103c2576004356117508161065a565b6044356001600160401b0381116103c25761176f903690600401610785565b505f805160206144b683398151915254604051630748d63560e31b81526001600160a01b03928316600482015260248035908201529160209183916044918391165afa8015610be357610593915f916117d4575b506040519081529081906020820190565b6117ed915060203d602011610c0e57610bff8183610704565b5f6117c3565b346103c2575f3660031901126103c25760206001600160d01b03611815613182565b16604051908152f35b346103c25760203660031901126103c25760043561183b8161065a565b6118436126db565b5f805160206145168339815191528054604080516001600160a01b0380841682529094166020850181905292937f08f74ea46ef7894f65eabfb5e6e695de773a000b47c529ab559178069b2264019190a16001600160a01b031916179055005b346103c25760206112526118b636610989565b929190916125c7565b346103c25760203660031901126103c257602060405160018152f35b346103c25760203660031901126103c2576004355f525f805160206143f6833981519152602052602065ffffffffffff600160405f20015416604051908152f35b346103c2575f3660031901126103c25760207ed7616c8fe29c6c2fbe1d0c5bc8f2faa4c35b43746e70b24b4d532752affd0054604051908152f35b346103c25760a03660031901126103c25761197360043561065a565b61197e60243561065a565b6001600160401b036044358181116103c25761199e9036906004016108aa565b506064358181116103c2576119b79036906004016108aa565b506084359081116103c2576119d0903690600401610785565b506105936119dc6124ca565b6040516001600160e01b031990911681529081906020820190565b346103c25760203660031901126103c25760206112526004356124f3565b60603660031901126103c257600435611a2d8161065a565b604435906001600160401b0382116103c2575f8091611a5361002094369060040161125a565b90611a5c6126db565b81604051928392833781018481520391602435905af13d15611a9f573d90611a8382610734565b91611a916040519384610704565b82523d5f602084013e6131d3565b6060906131d3565b346103c2575f3660031901126103c2575f80516020614516833981519152546040516001600160a01b039091168152602090f35b346103c2575f3660031901126103c257610593604051611afa81610697565b602081527f737570706f72743d627261766f2671756f72756d3d666f722c6162737461696e60208201526040519182916020835260208301906104f3565b346103c2575f3660031901126103c25760206040517ff2aad550cf55f045cb27e9c559f9889fdfb6e6cdaa032301d6ea397784ae51d78152f35b346103c25760203660031901126103c25760043563ffffffff811681036103c25761002090611b9f6126db565b6131fc565b346103c25760403660031901126103c257600435611bc18161065a565b5f604051611bce816106b2565b525f805160206144b683398151915254604051630748d63560e31b81526001600160a01b03928316600482015260248035908201529160209183916044918391165afa8015610be357610593915f916117d457506040519081529081906020820190565b346103c25760203660031901126103c257611c4b6126db565b61002060043561328c565b346103c25760a03660031901126103c257611c7260043561065a565b611c7d60243561065a565b6084356001600160401b0381116103c257611c9c903690600401610785565b505f80516020614516833981519152546001600160a01b031630036108175760405163f23a6e6160e01b8152602090f35b346103c25760203660031901126103c257602061125260043561263a565b346103c2575f3660031901126103c2575f805160206144b6833981519152546040516001600160a01b039091168152602090f35b90600182811c92168015611d4d575b6020831014611d3957565b634e487b7160e01b5f52602260045260245ffd5b91607f1691611d2e565b604051905f825f8051602061447683398151915291825492611d7884611d1f565b80845293602091600191828116908115611e045750600114611da4575b50505061073292500383610704565b5f9081527f42ad5d3e1f2e6e70edcf6d991b8a3023d3fca8047a131592f9edb9fd9b89d57d9590935091905b828410611dec57506107329450505081016020015f8080611d95565b85548885018301529485019487945092810192611dd0565b925050506020925061073294915060ff191682840152151560051b8201015f8080611d95565b604051905f825f8051602061449683398151915291825492611e4b84611d1f565b80845293602091600191828116908115611e045750600114611e765750505061073292500383610704565b5f9081527f5f9ce34815f8e11431c7bb75a8e6886a91478f7ffc1dbb0a98dc240fddd76b759590935091905b828410611ebe57506107329450505081016020015f8080611d95565b85548885018301529485019487945092810192611ea2565b5f527f0d5829787b8befdbc6044ef7457d8a95c2a04bc99235349f1a212c063e59d40160205260405f2090565b5f525f805160206143f683398151915260205260405f2090565b634e487b7160e01b5f52603260045260245ffd5b8051821015611f455760209160051b010190565b611f1d565b95949290939195611f59613533565b611f616121d0565b611f69613533565b81516001600160401b038111610692575f8051602061447683398151915290611f9b81611f968454611d1f565b613561565b602080601f83116001146120105750611ff694611fec6107329c9b9995611ffb9995611fe5866120009e9b97611ff1975f91612005575b508160011b915f199060031b1c19161790565b90556136cc565b6137d1565b61283e565b61285f565b61289c565b612943565b90508601515f611fd2565b5f805160206144768339815191525f5290601f1983167f42ad5d3e1f2e6e70edcf6d991b8a3023d3fca8047a131592f9edb9fd9b89d57d925f905b8282106120a15750506107329c9b9995611ffb9995600186611ff1966120009f9c9896611ff69c97611fec9710612089575b5050811b0190556136cc565b8701515f1960f88460031b161c191690555f8061207d565b80600185968294968c0151815501950193019061204b565b6040513d5f823e3d90fd5b604051906120d1826106b2565b5f8252565b604051906120e382610697565b601d82527f6d6f64653d626c6f636b6e756d6265722666726f6d3d64656661756c740000006020830152565b5f805160206144b683398151915254604051634bf5d7e960e01b8152905f90829060049082906001600160a01b03165afa5f9181612156575b5061052957506105296120d6565b9091503d805f833e6121688183610704565b8101906020818303126103c2578051906001600160401b0382116103c2570181601f820112156103c257805161219d81610734565b926121ab6040519485610704565b818452602082840101116103c2576121c991602080850191016104d2565b905f612148565b604051906121dd82610697565b60018252603160f81b6020830152565b939092919695610d556122c2916122bc8a61220936878961074f565b6001600160a01b0382165f9081527f5ab42ced628888259c08ac98db1eb0cf702fc1501344311d8b100cd1bfe4bb006020526040902080546001810190915590602081519101208b5160208d0120906040519260208401947f3e83946653575f9a39005e1545185629e92736b7528ab20ca3816f315424a81186528d604086015260ff8d16606086015260018060a01b0316608085015260a084015260c083015260e082015260e081526116a4816106e8565b8a613b7c565b6122dd576105299596916122d791369161074f565b92612b57565b6040516394ab6c0760e01b81526001600160a01b0388166004820152602490fd5b634e487b7160e01b5f52601160045260245ffd5b91939290936123218233612dc7565b1561242c577ed7616c8fe29c6c2fbe1d0c5bc8f2faa4c35b43746e70b24b4d532752affd0054948561235b575b6105299495503393612f61565b65ffffffffffff5f198161236d612444565b160190808211612427576020905f604051612387816106b2565b525f805160206144b683398151915254604051630748d63560e31b8152336004820152939091166024840152829060449082906001600160a01b03165afa908115610be3575f91612408575b508681106123e1575061234e565b604051636121770b60e11b8152336004820152602481019190915260448101879052606490fd5b612421915060203d602011610c0e57610bff8183610704565b5f6123d3565b6122fe565b60405163d9b3955760e01b8152336004820152602490fd5b5f805160206144b6833981519152546040516324776b7d60e21b815290602090829060049082906001600160a01b03165afa5f918161248d575b50610529575061052943613d36565b9091506020813d6020116124c2575b816124a960209383610704565b810103126103c257516124bb81610e77565b905f61247e565b3d915061249c565b5f80516020614516833981519152546001600160a01b031630036108175763bc197c8160e01b90565b5f525f805160206143f683398151915260205260405f205465ffffffffffff908163ffffffff8260d01c169160a01c1601818111612427571690565b9081518082526020808093019301915f5b82811061254e575050505090565b83516001600160a01b031685529381019392810192600101612540565b90808251908181526020809101926020808460051b8301019501935f915b8483106125995750505050505090565b90919293949584806125b7600193601f198682030187528a516104f3565b9801930193019194939290612589565b929061261392612625926040519485926126036125f0602086019960808b5260a087019061252f565b601f199687878303016040880152611500565b908585830301606086015261256b565b90608083015203908101835282610704565b51902090565b908160209103126103c2575190565b5f805160206144b683398151915254604051632394e7a360e21b8152600481018390529190602090839060249082906001600160a01b03165afa908115610be357610529925f92612696575b5061269090612c6f565b90613300565b6126909192506126b49060203d602011610c0e57610bff8183610704565b9190612686565b5f80516020614516833981519152546001600160a01b0316300361081757565b5f80516020614516833981519152546001600160a01b031633810361274157300361270257565b61270b36610734565b6127186040519182610704565b3681526020810190365f83375f602036830101525190205b80612739613377565b036127305750565b6040516347096e4760e01b8152336004820152602490fd5b6040906127745f939594606083019683526020830190611018565b0152565b612781816129cb565b906008821015611013576010600160ff84161b161561279e575090565b6127c1606492604051926331b75e4d60e01b845260048401526024830190611018565b60106044820152fd5b6127d3816129cb565b906008821015611013576020600160ff84161b16156127f0575090565b612813606492604051926331b75e4d60e01b845260048401526024830190611018565b60206044820152fd5b6128259061342c565b1561282c57565b634e487b715f5260416020526024601cfd5b6107329291611b9f61285a92612852613533565b6113c4613533565b61328c565b612867613533565b61286f613533565b5f805160206144b683398151915280546001600160a01b0319166001600160a01b03909216919091179055565b6128a4613533565b6128ac613533565b606481116104b3576001600160d01b03806128c5613182565b16906128cf612444565b9080841161292357839291612907917f0553476bf02ef2726e8ce5ced78d63e26e602e4a2257b1f559418e24b4633997951690613f58565b505060408051918252602082019290925290819081015b0390a1565b6040516306dfcc6560e41b815260d0600482015260248101859052604490fd5b61294b613533565b612953613533565b5f805160206145168339815191528054604080516001600160a01b0380841682529094166020850181905292937f08f74ea46ef7894f65eabfb5e6e695de773a000b47c529ab559178069b2264019190a16001600160a01b031916179055565b908160209103126103c2575180151581036103c25790565b6129d4816138b5565b906129de82611009565b60058203612ad8576129f09150611ed6565b545f8051602061451683398151915254612a12906001600160a01b0316610a34565b604051632c258a9f60e11b81526004810183905260209291908381602481855afa908115610be3575f91612abb575b5015612a4f57505050600590565b604051632ab0f52960e01b815260048101929092528290829060249082905afa918215610be3575f92612a8e575b505015612a8957600790565b600290565b612aad9250803d10612ab4575b612aa58183610704565b8101906129b3565b5f80612a7d565b503d612a9b565b612ad29150843d8611612ab457612aa58183610704565b5f612a41565b5090565b91610529939160405193612aef856106b2565b5f8552612b57565b93909260ff612b239361052997958752166020860152604085015260a0606085015260a08401906104f3565b9160808184039101526104f3565b909260ff60809361052996958452166020830152604082015281606082015201906104f3565b929190612b63846129cb565b6008811015611013576002600160ff83161b1615612c415750612bb9612bb1612bab612ba0612b9188611f03565b5460a01c65ffffffffffff1690565b65ffffffffffff1690565b83613109565b838387613be3565b948051155f14612c055750612bff7fb8e138887d0aa13bab447e82de9d5c1777041ecd21ca36ba824ff1e6c07ddda4938660405194859460018060a01b03169785612b31565b0390a290565b612bff907fe2babfbac5889a709b63bb7f598b324e08bc5a4fb9ec647fb3cbc9ec07eb8712948760405195869560018060a01b03169886612af7565b6040516331b75e4d60e01b815260048101869052606491612c66906024830190611018565b60026044820152fd5b612c77613cd4565b9265ffffffffffff92509082168110612c995750505b6001600160d01b031690565b612ca4919250613d36565b905f80516020614436833981519152918254905f91809360058211612d19575b5050612cd093506141f1565b80612cdc57505f612c8d565b612d0d612ceb612d1492613174565b5f805160206144368339815191525f525f805160206144568339815191520190565b5460301c90565b612c8d565b612d25829395926140c6565b830392831161242757612cd0955f5280835f80516020614456833981519152015416908516105f14612d5b5750915b5f80612cc4565b929150612d6790612e2f565b90612d54565b5f805160206144168339815191529081547fc565b045403dc03c2eea82b81a0465edad9e2e7fc4d97e11421c209da93d7a93604065ffffffffffff81519481851686521693846020820152a165ffffffffffff1916179055565b90805160348110612e275760131981830101516001600160b01b03191669dc8f8d908f908c9a8dc360b01b01612e2757612e0691602919820190613d94565b9015918215612e1457505090565b6001600160a01b03918216911614919050565b505050600190565b906001820180921161242757565b9190820180921161242757565b90612e5482610829565b612e616040519182610704565b8281528092612e72601f1991610829565b01905f5b828110612e8257505050565b806060602080938501015201612e76565b9592612ec790612ed5939b9a989996959261012090895260209c60018060a01b03168d8a01528060408a015288019061252f565b908682036060880152611500565b9784890360808601528251808a52818a019180808360051b8d01019501925f905b838210612f3357505050505061052996975090612f1a9184820360a086015261256b565b9360c083015260e08201526101008184039101526104f3565b90919293958380612f528f93600194601f199082030186528a516104f3565b98019201920190939291612ef6565b919493909294612f79865160208801208286866125c7565b9583518551908181148015906130fe575b80156130f6575b6130cd57505065ffffffffffff9485612fac612b918a611f03565b166130a6577f7d84a6263ae0d98d3329bd7b46bb4e8d6f98cd35a7adb45c274c8b7fd5ebd5e09561291e9363ffffffff613001612fe7612444565b5f8051602061441683398151915254948086169116612e3d565b9260301c166130846130128c611f03565b80546001600160a01b0319166001600160a01b038a1617815561305b61303786613d36565b825465ffffffffffff60a01b191660a09190911b65ffffffffffff60a01b16178255565b61306483613e24565b815463ffffffff60d01b191660d09190911b63ffffffff60d01b16179055565b6130986130918951612e4a565b9184612e3d565b936040519889988d8a612e93565b876130b0816129cb565b6040516331b75e4d60e01b815291829161112e9160048401612759565b8351604051630447b05d60e41b8152600481019290925260248201526044810191909152606490fd5b508015612f91565b508351811415612f8a565b5f805160206144b683398151915254604051630748d63560e31b81526001600160a01b039283166004820152602481019390935260209183916044918391165afa908115610be3575f9161315b575090565b610529915060203d602011610c0e57610bff8183610704565b5f1981019190821161242757565b5f8051602061443683398151915280548061319d5750505f90565b805f19810111612427577f293b0181c8ec34cd3252e741689bdc21b70ee7a0ec76216439035a5c3718909a915f52015460301c90565b156131db5790565b8051156131ea57602081519101fd5b60405163d6bda27560e01b8152600490fd5b63ffffffff908181169081156132745769ffffffff000000000000907f7e3f7f0708a84de9203036abaa450dccc85ad5ff52f78c170f3edb55cf5e882860405f80516020614416833981519152958654958251918760301c1682526020820152a160301b169069ffffffff0000000000001916179055565b60405163f1cfbf0560e01b81525f6004820152602490fd5b7ed7616c8fe29c6c2fbe1d0c5bc8f2faa4c35b43746e70b24b4d532752affd00805460408051918252602082018490527fccb45da8d5717e6c4544694297c4ba5cf151d455c9bb0ed4fc7a38411bc0546191a155565b81156132ec570490565b634e487b7160e01b5f52601260045260245ffd5b5f198282098282029182808310920391808303921461336d57816064111561335b577f5c28f5c28f5c28f5c28f5c28f5c28f5c28f5c28f5c28f5c28f5c28f5c28f5c29936064910990828211900360fe1b910360021c170290565b634e487b715f5260116020526024601cfd5b5050606491500490565b61337f613e54565b90156133885790565b634e487b715f5260316020526024601cfd5b9493926133c66080936133b86133d49460a08a5260a08a019061252f565b9088820360208a0152611500565b90868203604088015261256b565b935f60608201520152565b919261340e60a09461340061341c949998979960c0875260c087019061252f565b908582036020870152611500565b90838203604085015261256b565b945f606083015260808201520152565b5f805160206144f68339815191529081548060801c9160018301926001600160801b03809316838516146134a0575f527f7c712897014dbe49c045ef1299aa2d5f9e67e48eea4403efa21f1e0f3ac0cb0360205260405f20558254916001600160801b03199060801b169116179055600190565b50505050505f90565b9290939160018060a01b035f80516020614516833981519152541690813b156103c2575f936135036040519788958694859463e38335e560e01b86526bffffffffffffffffffffffff193060601b1618926004860161339a565b039134905af1908115610be3575f9261352192613524575b50611ed6565b55565b61352d9061067f565b5f61351b565b60ff5f805160206145568339815191525460401c161561354f57565b604051631afcd79f60e31b8152600490fd5b601f811161356d575050565b5f805160206144768339815191525f527f42ad5d3e1f2e6e70edcf6d991b8a3023d3fca8047a131592f9edb9fd9b89d57d906020601f840160051c830193106135d0575b601f0160051c01905b8181106135c5575050565b5f81556001016135ba565b90915081906135b1565b601f81116135e6575050565b5f805160206145368339815191525f527fda13dda7583a39a3cd73e8830529c760837228fa4683752c823b17e10548aad5906020601f840160051c83019310613649575b601f0160051c01905b81811061363e575050565b5f8155600101613633565b909150819061362a565b601f811161365f575050565b5f805160206144968339815191525f527f5f9ce34815f8e11431c7bb75a8e6886a91478f7ffc1dbb0a98dc240fddd76b75906020601f840160051c830193106136c2575b601f0160051c01905b8181106136b7575050565b5f81556001016136ac565b90915081906136a3565b9081516001600160401b038111610692575f80516020614496833981519152906136ff816136fa8454611d1f565b613653565b602080601f8311600114613740575081906137319394955f92613735575b50508160011b915f199060031b1c19161790565b9055565b015190505f8061371d565b90601f1983169561377e5f805160206144968339815191525f527f5f9ce34815f8e11431c7bb75a8e6886a91478f7ffc1dbb0a98dc240fddd76b7590565b925f905b8882106137b9575050836001959697106137a1575b505050811b019055565b01515f1960f88460031b161c191690555f8080613797565b80600185968294968601518155019501930190613782565b906137da613533565b81516001600160401b038111610692575f805160206145368339815191529061380c816138078454611d1f565b6135da565b602080601f831160011461383d575081906137319394955f926137355750508160011b915f199060031b1c19161790565b90601f1983169561387b5f805160206145368339815191525f527fda13dda7583a39a3cd73e8830529c760837228fa4683752c823b17e10548aad590565b925f905b88821061389d575050836001959697106137a157505050811b019055565b8060018596829496860151815501950193019061387f565b6138be81611f03565b5460ff8160f01c166139ab5760f81c6139a5576138e0612ba0612b9183611f03565b801561398c576138f1612ba0612444565b8091101561398657613902826124f3565b1061390d5750600190565b613919610d5582614034565b8015613957575b1561392b5750600390565b612ba0600161393c61394993611f03565b015465ffffffffffff1690565b61395257600490565b600590565b50613981610d55825f525f805160206144d683398151915260205260405f20600181015490541090565b613920565b50505f90565b604051636ad0607560e01b815260048101839052602490fd5b50600290565b5050600790565b906139be9392916125c7565b6139c7816129cb565b600881101561101357603b600160ff83161b1615613ab75750613a016139ec82611f03565b80546001600160f81b0316600160f81b179055565b6040518181527f789cf55be980739dad1d0699b93b58e806b51c9d96619bfa8fe0a28abaa7b30c90602090a1613a3681611ed6565b5480613a40575090565b5f8051602061451683398151915254613a61906001600160a01b0316610a34565b803b156103c25760405163c4d252f560e01b815260048101929092525f908290602490829084905af18015610be357613aa4575b505f613aa082611ed6565b5590565b80610bd7613ab19261067f565b5f613a95565b90613adb606492604051926331b75e4d60e01b845260048401526024830190611018565b603b6044820152fd5b604290613aef611d57565b60208151910120613afe611e2a565b602081519101206040519060208201927f8b73c3c69bb8fe3d512ecc4cf759cc79239f7b179b0ffacaa9a75d522b39400f8452604083015260608201524660808201523060a082015260a08152613b54816106cd565b519020906040519161190160f01b8352600283015260228201522090565b6004111561101357565b9091813b613ba457613b8e919261408c565b50613b9881613b72565b159182612e1457505090565b6020918160645f935160405192630b135d3f60e11b9788855260048501526040602485015286820190604485015e01915afa905f5114601f3d11161690565b613c04909291925f525f805160206144d683398151915260205260405f2090565b9160038301613c2d613c2683839060018060a01b03165f5260205260405f2090565b5460ff1690565b613cb357613c5160ff9392613c5e929060018060a01b03165f5260205260405f2090565b805460ff19166001179055565b1680613c755750613c70828254612e3d565b905590565b60018103613c8c5750600101613c70828254612e3d565b600203613ca157600201613c70828254612e3d565b6040516303599be160e11b8152600490fd5b6040516371c6af4960e01b81526001600160a01b0383166004820152602490fd5b5f80516020614436833981519152805480613cf35750505f905f905f90565b805f19810111612427577f293b0181c8ec34cd3252e741689bdc21b70ee7a0ec76216439035a5c3718909a915f52015460019165ffffffffffff82169160301c90565b65ffffffffffff90818111613d49571690565b604490604051906306dfcc6560e41b8252603060048301526024820152fd5b908160011b918083046002149015171561242757565b908160041b918083046010149015171561242757565b9190825182118015613e1b575b613df457613dae81612e2f565b821180613dfd575b613dc1901515613d68565b60280180602811612427578183038381116124275703613df457613de492614257565b90916001600160a01b0390911690565b5050505f905f90565b50828101602001516001600160f01b03191661060f60f31b14613db6565b50818111613da1565b63ffffffff90818111613e35571690565b604490604051906306dfcc6560e41b8252602060048301526024820152fd5b5f805160206144f6833981519152908154906001600160801b03928383169260801c8314613ec557600193835f527f7c712897014dbe49c045ef1299aa2d5f9e67e48eea4403efa21f1e0f3ac0cb03602052600160405f20945f8654965501166001600160801b0319825416179055565b505f9250829150565b5f80516020614436833981519152908154600160401b8110156106925760018101808455811015611f4557610732925f525f805160206144568339815191520190613f3665ffffffffffff825116839065ffffffffffff1665ffffffffffff19825416179055565b60200151815465ffffffffffff1660309190911b65ffffffffffff1916179055565b5f8051602061443683398151915254919291801561400b57612ceb613f7c91613174565b9081549165ffffffffffff90818416918316808311613ff957869203613fc157613fba92509065ffffffffffff82549181199060301b169116179055565b60301c9190565b5050613ff490613fe0613fd2610725565b65ffffffffffff9092168252565b6001600160d01b0385166020820152613ece565b613fba565b604051632520601d60e01b8152600490fd5b5061402f9061401b613fd2610725565b6001600160d01b0384166020820152613ece565b5f9190565b5f525f805160206144d683398151915260205260405f205f805160206143f683398151915260205261407465ffffffffffff60405f205460a01c1661263a565b60026001830154920154820180921161242757111590565b81519190604183036140bc576140b59250602082015190606060408401519301515f1a90614301565b9192909190565b50505f9160029190565b600181111561052957600181600160801b8110156141df575b61418761417d61417361416961415f61415561419397600488600160401b61418e9a10156141d2575b6401000000008110156141c5575b620100008110156141b8575b6101008110156141ac575b60108110156141a0575b1015614198575b60030260011c61414e818b6132e2565b0160011c90565b61414e818a6132e2565b61414e81896132e2565b61414e81886132e2565b61414e81876132e2565b61414e81866132e2565b80936132e2565b821190565b900390565b60011b61413e565b811c9160021b91614137565b60081c91811b9161412d565b60101c9160081b91614122565b60201c9160101b91614116565b60401c9160201b91614108565b50600160401b9050608082901c6140df565b8282106141fd57505090565b909180831860011c81841601905f805160206144368339815191525f5265ffffffffffff80835f80516020614456833981519152015416908416105f146142475750915b906141f1565b925061425290612e2f565b614241565b92909261426384612e2f565b8311806142e3575b61427d61428491949293941515613d68565b5f95612e3d565b915b8183106142965750505060019190565b9092919360ff6142b76142b26020888601015160ff60f81b1690565b614383565b1690600f82116142d857906142cd600192613d7e565b019401919290614286565b505f94508493505050565b50602084820101516001600160f01b03191661060f60f31b1461426b565b91907f7fffffffffffffffffffffffffffffff5d576e7357a4501ddfe92f46681b20a08411614378579160209360809260ff5f9560405194855216868401526040830152606082015282805260015afa15610be3575f516001600160a01b0381161561436e57905f905f90565b505f906001905f90565b5050505f9160039190565b60f81c602f8111806143eb575b1561439f57602f190160ff1690565b60608111806143e1575b156143b8576056190160ff1690565b60408111806143d7575b156143d1576036190160ff1690565b5060ff90565b50604781106143c2565b50606781106143a9565b50603a811061439056fe7c712897014dbe49c045ef1299aa2d5f9e67e48eea4403efa21f1e0f3ac0cb0100d7616c8fe29c6c2fbe1d0c5bc8f2faa4c35b43746e70b24b4d532752affd01e770710421fd2cad75ad828c61aa98f2d77d423a440b67872d0f65554148e000293b0181c8ec34cd3252e741689bdc21b70ee7a0ec76216439035a5c3718909ba16a46d94261c7517cc8ff89f61c0ce93598e3c849801011dee649a6a557d102a16a46d94261c7517cc8ff89f61c0ce93598e3c849801011dee649a6a557d1033ba4977254e415696610a40ebf2258dbfa0ec6a2ff64e84bfe715ff16977cc00a1cefa0f43667ef127a258e673c94202a79b656e62899531c4376d87a7f398007c712897014dbe49c045ef1299aa2d5f9e67e48eea4403efa21f1e0f3ac0cb020d5829787b8befdbc6044ef7457d8a95c2a04bc99235349f1a212c063e59d4007c712897014dbe49c045ef1299aa2d5f9e67e48eea4403efa21f1e0f3ac0cb00f0c57e16840df040f15088dc2f81fe391c3923bec73e23a9662efc9c229c6a00a26469706673582212207bee199506a2e94851eb673d12f0b5fb8de340cc9d5d02efe25e2b0a42c5263964736f6c63430008180033","linkReferences":{}},"methodIdentifiers":{"BALLOT_TYPEHASH()":"deaaa7cc","CLOCK_MODE()":"4bf5d7e9","COUNTING_MODE()":"dd4e2ba5","EXTENDED_BALLOT_TYPEHASH()":"2fe3e261","cancel(address[],uint256[],bytes[],bytes32)":"452115d6","castVote(uint256,uint8)":"56781388","castVoteBySig(uint256,uint8,address,bytes)":"8ff262e3","castVoteWithReason(uint256,uint8,string)":"7b3c71d3","castVoteWithReasonAndParams(uint256,uint8,string,bytes)":"5f398a14","castVoteWithReasonAndParamsBySig(uint256,uint8,address,string,bytes,bytes)":"5b8d0e0d","clock()":"91ddadf4","eip712Domain()":"84b0196e","execute(address[],uint256[],bytes[],bytes32)":"2656227d","getProposalId(address[],uint256[],bytes[],bytes32)":"a8f8a668","getVotes(address,uint256)":"eb9019d4","getVotesWithParams(address,uint256,bytes)":"9a802a6d","hasVoted(uint256,address)":"43859632","hashProposal(address[],uint256[],bytes[],bytes32)":"c59057e4","initialize(string,address,address,uint48,uint32,uint256,uint256)":"3b6dd8ec","name()":"06fdde03","nonces(address)":"7ecebe00","onERC1155BatchReceived(address,address,uint256[],uint256[],bytes)":"bc197c81","onERC1155Received(address,address,uint256,uint256,bytes)":"f23a6e61","onERC721Received(address,address,uint256,bytes)":"150b7a02","proposalDeadline(uint256)":"c01f9e37","proposalEta(uint256)":"ab58fb8e","proposalNeedsQueuing(uint256)":"a9a95294","proposalProposer(uint256)":"143489d0","proposalSnapshot(uint256)":"2d63f693","proposalThreshold()":"b58131b0","proposalVotes(uint256)":"544ffc9c","propose(address[],uint256[],bytes[],string)":"7d5e81e2","queue(address[],uint256[],bytes[],bytes32)":"160cbed7","quorum(uint256)":"f8ce560a","quorumDenominator()":"97c3d334","quorumNumerator()":"a7713a70","quorumNumerator(uint256)":"60c4247f","relay(address,uint256,bytes)":"c28bc2fa","setProposalThreshold(uint256)":"ece40cc1","setVotingDelay(uint48)":"79051887","setVotingPeriod(uint32)":"e540d01d","state(uint256)":"3e4f49e6","supportsInterface(bytes4)":"01ffc9a7","timelock()":"d33219b4","token()":"fc0c546a","updateQuorumNumerator(uint256)":"06f3f9e6","updateTimelock(address)":"a890c910","version()":"54fd4d50","votingDelay()":"3932abb1","votingPeriod()":"02a251a3"},"id":55}